:100000000C94F2020C9439030C9439030C943903C8
:100010000C9439030C9439030C9439030C94390370
:100020000C9439030C9439030C9428210C94FB2173
:100030000C949A180C9439030C9439030C943903DA
:100040000C9439030C9439030C9439030C94390340
:100050000C9439030C9402190C9439030C94390351
:100060000C9439030C9439030C9439030C94390320
:100070000C9439030C9439030C9439030C94390310
:100080000C9439030C9439030C9439030C94390300
:100090000C9439030C9439030C9439030C943903F0
:1000A0000C9439030C9439030C94390300000000BC
:1000B00001512800E100500051004F0029004B0081
:1000C00052004E000000000001000100010003305A
:1000D0000430053001000030013002300000000023
:1000E0000100010001000100010001000100010008
:1000F00001000100000000000100010001000100FA
:1001000001000100010001000100010000000000E9
:1001100001000100010001000100010001000100D7
:1001200001000100000000000100010001000100C9
:1001300001000100010001000100010000000000B9
:1001400001000100010001000100010001000100A7
:100150000100010000000000010001000100010099
:100160000100010001000100010001000000000089
:100170000100010001000100010001000100010077
:100180000100010000000000010001000100010069
:100190000100010001000100010001000000000059
:1001A0000100010001000100010001000100010047
:1001B0000100010000000000010001000100010039
:1001C0000100010001000100010001000000000029
:1001D0000100010001000100010001000100010017
:1001E0000100010000000000010001000100010009
:1001F00001000100010001000100010000000000F9
:1002000001000100010001000100010001000100E6
:1002100001000100000000000100010001000100D8
:1002200001000100010001000100010064321464BA
:100230003214783C1E1E140A050000000001010162
:100240000202030405050607090A0B0C0E0F111222
:10025000141517191B1D1F212325282A2C2F313473
:1002600036393B3E414346494C4F5255585A5D61E1
:1002700064676A6D707376797C7F8386898C8F92D0
:1002800095989B9EA2A5A7AAADB0B3B6B9BCBEC1B6
:10029000C4C6C9CBCED0D3D5D7DADCDEE0E2E4E603
:1002A000E8EAEBEDEEF0F1F3F4F5F6F8F9FAFAFB23
:1002B000FCFDFDFEFEFEFFFFFFFFFFFFFFFEFEFE5B
:1002C000FDFDFCFBFAFAF9F8F6F5F4F3F1F0EEEDCA
:1002D000EBEAE8E6E4E2E0DEDCDAD7D5D3D0CECB59
:1002E000C9C6C4C1BEBCB9B6B3B0ADAAA7A5A29ECB
:1002F0009B9895928F8C898683807C797673706DBC
:100300006A6764615D5A5855524F4C494643413EB5
:100310003B393634312F2C2A282523211F1D1B1948
:1003200017151412110F0E0C0B0A09070605050408
:1003300003020201010100000000000000000101B1
:100340000101010101010102020202020202020294
:100350000303030303030303040404040404050563
:100360000505050606060606070707070808080824
:100370000909090A0A0A0A0B0B0B0C0C0C0D0D0DCE
:100380000E0E0F0F0F10101111111212131314145F
:10039000151516161717181819191A1A1B1C1C1DD3
:1003A0001D1E1F1F2020212222232425252627272A
:1003B00028292A2B2B2C2D2E2F2F30313233343558
:1003C00036363738393A3B3C3D3E3F404142434464
:1003D000464748494A4B4C4D4F505152535556573A
:1003E000585A5B5C5E5F606263646667696A6C6DE5
:1003F0006E707173747678797B7C7E80818384865D
:10040000888A8B8D8F91929496989A9B9D9FA1A399
:10041000A5A7A9ABADAFB1B3B5B7B9BBBDBFC1C49B
:10042000C6C8CACCCFD1D3D6D8DADCDFE1E4E6E85F
:10043000EBEDF0F2F5F7FAFCFF12036B00650079C3
:100440000062006F0061007200640000001603711A
:10045000006D006B006200750069006C006400654F
:1004600000720000000403090409026D0004010089
:10047000A0FA090400000103010100092111010093
:10048000012240000705810308000A090401000158
:1004900003010200092111010001224D000705821C
:1004A0000308000A090402000103000000092111E9
:1004B0000100012236000705830308000A0904032E
:1004C0000001030000000921110100012239000789
:1004D0000584032000011201100100000008EDFE58
:1004E000606001000102000105010906A101050784
:1004F00019E029E715002501950875018102050815
:100500001901290595057501910295017503910160
:100510000507190029F71500250195F875018102D5
:10052000C005010980A10185021601002603001AF9
:1005300081002A8300751095018100C0050C090116
:10054000A1018503160100269C021A01002A9C02C3
:10055000751095018100C005010902A1010901A1E1
:100560000005091901290515002501950575018169
:1005700002950175038101050109300931158125B5
:100580007F95027508810609381581257F950175CB
:10059000088106050C0A38021581257F950175082A
:1005A0008106C0C005010906A101050719E029E778
:1005B00015002501950875018102950175088101D5
:1005C0000508190129059505750191029501750325
:1005D00091010507190029FF150026FF00950675F2
:1005E000088100C011241FBECFEFDAE0DEBFCDBF0F
:1005F00004B603FE27C08091240290912502A091A9
:100600002602B09127028730904BA740B04BD1F41F
:1006100010922402109225021092260210922702B4
:1006200014BE84B7877F84BF0FB6F894A8958091D5
:100630006000886180936000109260000FBEE0E06F
:10064000F8E3099511E0A0E0B1E0ECEAFAE402C0B9
:1006500005900D92A033B107D9F722E0A0E3B1E0F5
:1006600001C01D92A432B207E1F70E94751E0C94DE
:1006700054250C94000090E080E0089508950895BA
:1006800081E00895089581E008950C9440030E944C
:100690000F112FEF84E39CE0215080409040E1F760
:1006A00000C000000C942719FF920F931F93CF9363
:1006B000DF938C01FC01C081D18180916C0181119B
:1006C00048C08281882309F43FC0CE010E9474167D
:1006D000F82E682FCE010E941C16BE018F2D0E949D
:1006E000F004EC01B8010E944503882309F478C0A6
:1006F000B801CE010E940007882309F471C0C633F7
:10070000F0E7DF0709F484C0C0F5C53190E7D907E9
:1007100028F5C230E0E7DE0708F099C0C115F0E720
:10072000DF0709F458C0C130D04709F460C081E048
:100730008093320180933301C801DF91CF911F91E3
:100740000F91FF900C944303CE010E944A16F82E9D
:10075000C4CFCE010E947416BE01C1CFC43390E74E
:10076000D90709F44EC0C533D04709F7F801828193
:100770008823B1F10E94CA0A33C0CA33F0E7DF0709
:1007800009F457C070F4F8018281C833F0E7DF073D
:1007900009F44AC008F443C0882311F10E940E0AEC
:1007A0001FC0CC33E0E7DE0709F4D5C008F448C029
:1007B000CD33D04709F0BBCFF8018281882309F4FB
:1007C000F1C0109233010E94CC18909331018093B4
:1007D000300180E2CDC0F801828181110E9447037F
:1007E00080E0DF91CF911F910F91FF900895F80164
:1007F00082818823A9F38091DC0181608093DC01F0
:10080000EFCFF8018281882359F30E94D40AE8CF00
:10081000F8018281882321F30E94BF09E1CF882358
:10082000F9F20E94D709DCCF8823D1F20E94F609A1
:10083000D7CFF8018281882399F20E94260AD0CF6F
:10084000F8018281882361F20E943E0AC9CFF80133
:100850008281882309F470CF0E942C18811102C074
:100860000E940B180E94491890E090931602809302
:100870001502FE01E350F047809115028160E231DC
:10088000F105C8F4EA5BFB4F0C940125580464049D
:1008900068046C047004740478047C048004840488
:1008A00088048C049004940498049C04A004A40478
:1008B00080911502826080931502809115020E943A
:1008C0004D180E940F118CCF809115028460F3CFD8
:1008D000809115028860EFCF809115028061EBCF87
:1008E000809115028062E7CF809115028064E3CF8A
:1008F000809115028068DFCF809115028460EACF75
:10090000809115028E7FD7CF809115028D7FD3CF36
:10091000809115028B7FCFCF80911502877FCBCF3F
:10092000809115028F7EC7CF809115028F7DC3CF36
:10093000809115028F7BBFCF809115028F77BBCF3F
:10094000809115028B7FEACF90911502892F97FB3A
:1009500087F98058B0CFF8018281882361F0109226
:1009600032010E94CC18909331018093300182E0D3
:100970000E94990E35CF8091320181110FC0809174
:100980003001909131010E94D818883C910530F4D3
:1009900086E20E946E0D86E20E944A0E82E00E946C
:1009A000A00E1ECF8091330181110FC080913001C4
:1009B000909131010E94D818883C910530F487E26B
:1009C0000E946E0D87E20E944A0E80E2E8CF0C94EE
:1009D0004F070C9451070C9442030C94EB040895B8
:1009E000E72FF0E093E0899FE00DF11D1124EE0F59
:1009F000FF1FEE0FFF1FE60FF11DEE0FFF1FE45567
:100A0000FF4F859194910895FC01EE0FFF1FE45D67
:100A1000FD4F8591949108950E94F0040E947F06F5
:100A2000811520E4920708F08DC0811540E39407FA
:100A300008F0E8C0803E910508F071C0803C910547
:100A400008F0CCC0883A910580F4853A910508F009
:100A5000CAC08130910509F46EC020F08430910540
:100A600008F069C090E080E008958D3B9105D0F7D3
:100A7000883A910509F404C1893A910509F403C142
:100A80008A3A910509F402C18B3A910509F401C132
:100A90008C3A910509F400C18B3B910509F4FFC024
:100AA0008C3B910509F4FEC08D3A910509F4FDC017
:100AB000803B910509F4FCC08E3A910509F4FBC016
:100AC0008F3A910509F4FAC0813B910509F4F9C008
:100AD000823B910509F4F8C0833B910509F4F7C006
:100AE000843B910509F4F6C0853B910509F4F5C0F6
:100AF000863B910509F4F4C0873B910509F4F3C0E6
:100B0000883B910509F4F2C0893B910509F4F1C0D5
:100B10008A3B910509F4F0C080E094E408958F3F8A
:100B2000910509F048F4803F910508F067C0883EC0
:100B3000910508F097CF0895811520E2920708F0FB
:100B40005FC00895811543E5940760F5811522E59E
:100B5000920708F062C0811541E5940708F058C07B
:100B6000811520E5920708F450C09C0154E03695A9
:100B700027955A95E1F7922F9370482F437021E003
:100B800030E002C0220F331F4A95E2F73C68392B50
:100B900086958695837040E2849FC0011124822B44
:100BA000932B0895811545E5940750F4811524E5AC
:100BB000920708F446C0982F8827846F906A08959A
:100BC000811546E5940708F450C09C0130569F708B
:100BD0002115304108F046CF90620895805C91095C
:100BE0000E9404050895853A910509F443C0863AA8
:100BF000910509F042C082E890E408959065089557
:100C00009F70EECF9927906C08959F70906A089519
:100C1000982F8827816F906A0895AC0143705527FB
:100C200021E030E002C0220F331F4A95E2F786959B
:100C3000869540E2849FC0011124822B932B9C68EF
:100C40000895AC014370552721E030E002C0220F27
:100C5000331F4A95E2F78695869540E2849FC0014E
:100C60001124822B932B9A680895982F8827882720
:100C70009F71B2CF81E890E4089583E890E40895ED
:100C800082EE94E4089589EE94E408958AEE94E463
:100C9000089585EB94E4089586EB94E4089583EB3E
:100CA00094E4089584EB94E4089587EB94E4089524
:100CB0008CEC94E408958DEC94E4089583E895E435
:100CC00008958AE895E4089582E995E4089584E911
:100CD00095E4089581E296E4089583E296E4089508
:100CE00084E296E4089585E296E4089586E296E427
:100CF000089587E296E408958AE296E41CCF82384C
:100D0000910549F1B0F48133910509F45CC048F4D0
:100D10008932910509F452C08A32910509F458C00C
:100D200008958533910509F444C08933910599F0FC
:100D30000895833E910531F138F4803E910591F09C
:100D4000823E9105B1F00895863E910511F1873EEE
:100D5000910541F10895209115022370C9F080EEAC
:100D600090E008952091150220FF12C089E390E0E1
:100D700008952091150222FF0BC024FF2EC090E0A1
:100D800080E008952091150222FD2AC024FDF7CFAE
:100D900008952091150223FFFBCF24FDF0CF87EEAD
:100DA00090E008952091150223FFF0CF86EE90E0A9
:100DB00008952091150225FD16C008952091150271
:100DC00025FD14C008952091150226FD12C0089536
:100DD0002091150226FD10C0089583EE90E008953D
:100DE00082EE90E0089589E290E0089585E390E036
:100DF00008958AE290E0089581E390E0C9CF0895D4
:100E00000F931F93CF938C01FB018281811106C048
:100E1000C1E08C2FCF911F910F910895C091410196
:100E2000C11125C00531104799F70E94FF0681E0E6
:100E3000809341010E94CC189093400180933F0120
:100E4000109234011092360110923501109238013F
:100E50001092370110923A011092390110923C0120
:100E600010923B0110923E0110923D01D2CF809131
:100E70003F01909140010E94D818883C910540F6AE
:100E800080913401E82FF0E0EE0FFF1FEB5CFE4F86
:100E9000118300838F5F80933401C0E0BACF0C943C
:100EA0003E030C943F03CF93DF9385B7806885BFE3
:100EB00085B7806885BFA4E1B1E048E151E0C1E0B9
:100EC000D0E08D91E82FE295EF70F0E061A18F7096
:100ED0009E0101C0220F8A95EAF7922F90959623E2
:100EE00091A382A1822B82A34A175B0751F7A8E145
:100EF000B1E04BE151E0C1E0D0E08D91E82FE29507
:100F0000EF70F0E061A18F709E0101C0220F8A9501
:100F1000EAF7922F9095962391A382A1822B82A328
:100F20004A175B0751F71092450110924201109247
:100F30004601109243011092470110924401DF9143
:100F4000CF910C94E7042F923F925F926F927F9221
:100F50008F929F92AF92BF92CF92DF92EF92FF92C9
:100F60000F931F93CF93DF9304E111E0312C212CD9
:100F7000CC24C394D12C2BE1E22E21E0F22EBB2411
:100F8000B394E80189918E01E82FE295EF70F0E0CB
:100F900091A18F70A60101C0440F8A95EAF7892FAD
:100FA000842B81A392A1A42EA0949A2192A3D0EA8B
:100FB000DA95F1F7C601022C01C0880F0A94EAF70E
:100FC000682E782E7094A2E4B1E068E171E030E020
:100FD0005C90EB012991BE01822E82948FE08822E1
:100FE000912CE40188A190E02F7002C0959587951F
:100FF0002A95E2F780FD51C0852D86298C938C912E
:10100000581231E01196E616F70611F781A18A21F0
:1010100081A382A1482B42A3332341F0B09248011F
:101020000E94CC1890934A0180934901DFEF2D1A5A
:101030003D0AE4E02E16310409F0A3CF8091480167
:101040008823B1F08091490190914A010E94D818FB
:10105000069770F080914201809345018091430191
:10106000809346018091440180934701109248018A
:101070000E94E90481E0DF91CF911F910F91FF90D1
:10108000EF90DF90CF90BF90AF909F908F907F9028
:101090006F905F903F902F900895852D8721AECF60
:1010A000E82FF0E0EB5BFE4F8081089508953BB19F
:1010B000242F209523233BB1432B3FB7F894FC0109
:1010C000680F791FE617F70711F43FBF0895819164
:1010D00098E04BB9000000C087FF2BB9880F0000D3
:1010E00000C000C000C02BB900C09A9591F7EACFAC
:1010F0002AB1242B2AB99B01220F331F620F731FC1
:101100000E94570887EC90E00197F1F700C00000BB
:10111000089544E00C947808CF92DF92EF92FF920A
:101120000F931F93CF93DF93E901662309F466C001
:10113000E42EF12CEFEFF0E0E61BF109EE9D8001CB
:10114000EF9D100DFE9D100D1124212FE12FFF2783
:10115000EE1AFF0A5CE3C52ED12CB6010E94D924F9
:10116000FB01BC01E69EC001E79E900DF69E900D2E
:101170001124B6010E94D924E230F10589F168F406
:10118000812F262F210F309781F0242F461B319776
:1011900061F080E020E040E008C0E430F10551F16A
:1011A00028F1842F861B3597A1F7E42FF0E0E75C48
:1011B000FC4F4491E22FF0E0E75CFC4F9491E82F64
:1011C000F0E0E75CFC4FE49149839883EA83DF9188
:1011D000CF911F910F91FF90EF90DF90CF900895E6
:1011E000862F810FE42F412F2E2FDFCFE42FE61B18
:1011F000842FF9CF842F462F410FD7CF842F242F50
:10120000D4CF88E090E00C941425AB01BC0188E0B9
:1012100090E00C943225E9E0F2E083E080831092C4
:101220000A028FEF828383836091090270910A0220
:1012300080910B0290910C020C94050970E060E023
:1012400081E192E00C948908EF92FF920F931F9333
:10125000CF93DF9300D01F92CDB7DEB7182FE92EC2
:10126000F62E042F8091090290910A02A0910B02A0
:10127000B0910C0280930D0290930E02A0930F0286
:10128000B09310028091090280FF1CC09E012F5F65
:101290003F4F812F9E2D0E948C0880910D0210FBE4
:1012A00087F980930D02169580910E028078812B2C
:1012B000E0FA87F980930E02F0920F020093100279
:1012C0000E941E090F900F900F90DF91CF911F91F8
:1012D0000F91FF90EF9008950F931F93CF93DF939B
:1012E000EC01062F142F9091090290FF43C0892F23
:1012F0008E77823021F5CE010E9424098091090267
:10130000C0FB87F980930902C69580910A02807814
:10131000C82BD0FBC7F9C0930A0200930B021093AD
:101320000C026091090270910A0280910B02909167
:101330000C02DF91CF911F910F910C940509892F19
:1013400086958F732EE3280F2F73243018F4109195
:101350000C02D4CF865C8F73893080F6991F992751
:10136000991FD0910A02CD2FCC0FC92BD7FBDD27B7
:10137000D0F9C4CFDF91CF911F910F910895E9E08B
:10138000F2E02081221F2227221F30910A02432FE0
:10139000440F842F822B37FB992790F9089668E633
:1013A00071E00E94ED24438162810C946C092091CC
:1013B0000902221F2227221F30910A02432F440FC5
:1013C000842F822B37FB992790F98830910540F4C0
:1013D000805A9E4F40910C0260910B020C946C0954
:1013E000089768E671E00E94ED24F4CF60910B024B
:1013F000683F90F4685F80910902881F8827881FE2
:1014000090910A02292F220F97FB992790F940917A
:101410000C02822B0C946C096FEFEDCF60910B02E4
:10142000683090F0685080910902881F8827881FD3
:1014300090910A02292F220F97FB992790F940914A
:101440000C02822B0C946C0960E0EDCF40910C02F1
:10145000483F90F4485F80910902881F8827881FC1
:1014600090910A02292F220F97FB992790F96091FA
:101470000B02822B0C946C094FEFEDCF40910C02C4
:10148000483090F0485080910902881F8827881FB3
:1014900090910A02292F220F97FB992790F96091CA
:1014A0000B02822B0C946C0940E0EDCF9091090265
:1014B00090FF3BC09178811126C092609093090201
:1014C0006091090270910A0280910B0290910C02C6
:1014D0000E94050980910902982F9E779230D9F4D5
:1014E00010926001881F8827881F90910A02292F77
:1014F000220F97FB992790F940910C0260910B0203
:10150000822B0C946C09893110F09063D7CF8F73C4
:10151000880F982BD3CF982F9695925C9F73963116
:1015200008F791E090936001DDCF08958091DC0190
:1015300081608093DC0181E0809361010E942C181E
:10154000811104C00E940B180E940B090E9401091E
:101550006093090270930A0280930B0290930C022D
:101560006E7761F40E940B090E94010960930902E1
:1015700070930A0280930B0290930C0281E0809397
:1015800060018091090280FF04C086958F730C94DE
:10159000560A08958091090286958F738F5F89316D
:1015A00008F081E00C94560A90910902892F8E7FF1
:1015B00090FF8160809309026091090270910A0294
:1015C00080910B0290910C020E9405098091090202
:1015D00080FF04C086958F730C94560A10926001A8
:1015E0002FEF80E792E0215080409040E1F700C06B
:1015F00000000C941E09CF93C82F80915E0190913A
:101600005F010E94D818EC2FF0E0EB5CFD4FE491F5
:10161000E817190609F010F50E94CC1890935F01A5
:1016200080935E01E0915D01F0E0E75CFD4F449145
:1016300080910902881F8827881F90910A02292F0C
:10164000220F97FB992790F960910B02822B0E9441
:10165000240980915D018F5F80935D01CF91089592
:10166000CF93C82F80915B0190915C010E94D818A4
:10167000EC2FF0E0EE5CFD4FE491E817190609F05D
:10168000E8F40E94CC1890935C0180935B01409138
:101690000C0260910B028091590190915A010E94B5
:1016A00024098091590190915A01019668E671E0F0
:1016B0000E94D92490935A0180935901CF910895A3
:1016C000CF93C82F80915701909158010E94D8184C
:1016D000EC2FE695F0E0EE5CFD4FE491E81719067B
:1016E00009F0B8F40E94CC189093580180935701E8
:1016F0000E941E098091550190915601C0FF0BC0B8
:10170000019668E671E00E94D92490935601809377
:101710005501CF9108950197F8CFCF93DF93C82F4C
:10172000DFEF80FFD1E080915301909154010E943E
:10173000D818C695EC2FF0E0E15DFD4FE491E81775
:10174000190609F088F40E94CC18909354018093F4
:1017500053010E941E09D13061F480915201811120
:1017600006C08FEF80935201DF91CF910895815091
:10177000F9CF0E940725CF93C82F809150019091F7
:1017800051010E94D818EC2FF0E0E45DFD4FE49188
:10179000E817190609F0B0F40E94CC189093510193
:1017A000809350010E941E099091000180914F0189
:1017B000913071F48A3F44F489EF80934F018FEFA9
:1017C00080930001CF910895815080934F01FACF0B
:1017D00087302CF086E080934F0181E0F1CF8F5F5E
:1017E000F4CF80914D0190914E010E94D818883E0F
:1017F000934098F00E94CC1890934E0180934D0135
:1018000080914B0190914C010196817099279093A2
:101810004C0180934B010C941E0908958091600146
:10182000882371F18091090286958F739EE3980F4A
:101830009F73943018F482500C94FB0A9AE3980F2B
:101840009F73933018F486500C94300B97E3980FE5
:101850009F73963018F489500C94600B91E3980FA5
:101860009F73963018F48F500C948D0B9BE2980F59
:101870009F73933018F485510C94BB0B0C94F10BAF
:10188000089590936701809366010895E091660141
:10189000F0916701309721F00190F081E02D0994DB
:1018A00080E00895E0916601F0916701309721F0A2
:1018B0000280F381E02D09940895E0916601F09192
:1018C0006701309721F00480F581E02D0994089597
:1018D00020916401309165012817390771F09093C8
:1018E000650180936401E0916601F0916701309792
:1018F00021F00680F781E02D09940895209162017E
:10190000309163012817390771F090936301809338
:101910006201E0916601F0916701309721F0008447
:10192000F185E02D0994089508950C94940C0E947B
:10193000C3180E9453070E948C190C94960ABF92F8
:10194000CF92DF92EF92FF920F931F93CF93DF938B
:10195000CDB7DEB72A970FB6F894DEBF0FBECDBF66
:101960000E94A30789E6C82E81E0D82E10E000E08F
:10197000B02E802F0E945008E82EF601F1906F01E2
:10198000F81609F45AC08091DC0181FD0E945608C6
:1019900090E080E0FE242F2D30E0482FB901082E82
:1019A00002C0759567950A94E2F760FF41C08E8387
:1019B000BF8281E090E06C0102C0CC0CDD1C4A9536
:1019C000E2F72E2D30E02C213D21232B09F480E07D
:1019D00088870E94CC188160782F9A8789874E81EA
:1019E0005F8168858A850E94440DF801E759FE4FA2
:1019F00080818C2580830E940F1C0E94460C909150
:101A00006801891789F10E94460C809368012A9623
:101A10000FB6F894DEBF0FBECDBFDF91CF911F91FF
:101A20000F91FF90EF90DF90CF90BF900C94ED045A
:101A300001968430910509F0B0CF0F5F1F4F03303E
:101A4000110509F095CF8FEF89838A831B820E944D
:101A5000CC188160782F9D838C8349815A816B815A
:101A60008D810E94440DC7CF2A960FB6F894DEBF31
:101A70000FBECDBFDF91CF911F910F91FF90EF90DF
:101A8000DF90CF90BF900895CF93DF93CDB7DEB7AF
:101A90002B970FB6F894DEBF0FBECDBF4F8358878C
:101AA00069877A878B871E821D8285E0FE013796C3
:101AB000DE01119601900D928A95E1F749815A81D4
:101AC0006B817C818D819E812B960FB6F894DEBF51
:101AD0000FBECDBFDF91CF910C94C113882309F4C1
:101AE000D8C0823871F40E94460C81FDD2C089E3CF
:101AF0000E9414170E94DC1789E30E9451170C946E
:101B0000DC17833859F40E94460C80FDC2C083E57F
:101B10000E9414170E94DC1783E5EFCF843859F434
:101B20000E94460C82FDB5C087E40E9414170E94F3
:101B3000DC1787E4E2CF9CEF980F913A18F40E94EB
:101B40001417DDCF90E2980F983050F4877091E031
:101B500001C0990F8A95EAF7892F0E949317CFCF7A
:101B60009BE5980F933070F4853A31F0863A39F05E
:101B700083E890E00C94680C81E890E0FBCF82E869
:101B800090E0F8CF98E5980F953108F082C0883A38
:101B900009F440C0893A09F440C08A3A09F440C0C7
:101BA0008B3A09F440C08C3A09F440C08B3B09F4ED
:101BB00040C08C3B09F440C08D3A09F440C0803BE2
:101BC00009F440C08E3A09F440C08F3A09F440C08D
:101BD000813B09F440C0823B09F440C0833B09F4D7
:101BE00040C0843B09F440C0853B09F440C0863BBB
:101BF00009F440C0873B09F440C0883B09F440C069
:101C0000893B09F440C08A3B09F440C090E080E081
:101C10000C947E0C82EE90E0FBCF89EE90E0F8CF42
:101C20008AEE90E0F5CF85EB90E0F2CF86EB90E086
:101C3000EFCF83EB90E0ECCF84EB90E0E9CF87EB44
:101C400090E0E6CF8CEC90E0E3CF8DEC90E0E0CF3D
:101C500083E891E0DDCF8AE891E0DACF82E991E094
:101C6000D7CF84E991E0D4CF81E292E0D1CF83E273
:101C700092E0CECF84E292E0CBCF85E292E0C8CF73
:101C800086E292E0C5CF87E292E0C2CF8AE292E09C
:101C9000BFCF0895882309F44BC0823871F40E94A5
:101CA000460C81FF45C089E30E9414170E94DC178F
:101CB00089E30E9451170C94DC17833859F40E9471
:101CC000460C80FF35C083E50E9414170E94DC1784
:101CD00083E5EFCF843859F40E94460C82FF28C078
:101CE00087E40E9414170E94DC1787E4E2CF9CEF80
:101CF000980F913AF0F290E2980F983050F4877074
:101D000091E001C0990F8A95EAF7892F0E949917EF
:101D1000D2CF9BE5980F933020F490E080E00C94B4
:101D2000680C885A853120F490E080E00C947E0C99
:101D30000895882321F00E9493170C94DC170895CE
:101D4000882321F00E9499170C94DC1708958F9234
:101D50009F92AF92BF92DF92EF92FF920F931F93E9
:101D6000CF93DF937C01D62FC72FFC01058102950D
:101D70000F70128111110E94B2170E940D17D82EF8
:101D8000882371F0112321F180E28D0F883000F15A
:101D900082E00E94F7160E940D1791E0D82ED926F6
:101DA000EC2FE295EF70F0E0E852F14F0C94012532
:101DB000EA0EEA0E3A0F3A0F7C0F980F170F170F23
:101DC000A30F170F3B103B10AE10170F170FB710D4
:101DD000D12CE6CF0C2F0F70C07F11F00295007F41
:101DE0001123A9F0002359F080E28D0F883010F004
:101DF000D11109C0802F0E9493170E94DC178D2FEC
:101E00000E946E0D14C0802F0E94A417F6CF8D2F54
:101E10000E944A0E002359F080E28D0F883010F0A6
:101E2000D11124C0802F0E9499170E94DC17DD2059
:101E300009F4A4C10E94EA1680FDA0C1F701128234
:101E40000E94E4160E946015C7010E94CA100E94F9
:101E5000E416DF91CF911F910F91FF90EF90DF90EB
:101E6000BF90AF909F908F900C948115802F0E940F
:101E7000AA17DBCFFC2FFF70BF2EC07FC03219F036
:101E8000B29480EFB822DD2369F0D13029F111231B
:101E900069F1002359F0F701858180FFB0CF8F7081
:101EA000858304C0112361F0011104C08B2D0E94B1
:101EB000990EBDCF8B2D0130D1F70E94C617B7CF39
:101EC000011106C00E94C9178B2D0E94A00EAFCF32
:101ED000013009F4ACCFF6CF112321F0063008F021
:101EE000A6CFE4CF053008F0A2CFEECF002361F3F8
:101EF0008D2F0E944A0E9BCF8C2F869586958370DE
:101F000069F0813009F093CF8D2F9C2F93701111C0
:101F100002C090E080E00E947E0C89CF8D2F9C2F24
:101F20009370111102C090E080E00E94680C7FCF96
:101F30008D2F112329F00E94181B0E94041C77CFBB
:101F40000E94801BFACF8C2F837009F047C01111BB
:101F50006ECF2D2F229526952770220F220F6D2FE1
:101F60006F70862E912CB12CA12C022E04C0880CEF
:101F7000991CAA1CBB1C0A94D2F760E070E0CB014C
:101F8000D4FF0FC06FE070E080E090E004C0660F07
:101F9000771F881F991F2A95D2F7609570958095B5
:101FA0009095C695C695C370C23051F080F46829EB
:101FB00079298A299B29C13071F00E94091537CFF0
:101FC000682979298A299B290E94251530CF0E94EA
:101FD0000915C501B4010E94ED1429CF869511237E
:101FE00011F08C2F8170882309F421CF2D2F229599
:101FF00026952770220F220F6D2F6F70862E912C41
:10200000B12CA12C022E04C0880C991CAA1CBB1C4C
:102010000A94D2F760E070E0CB01D4FF0FC06FE00C
:1020200070E080E090E004C0660F771F881F991F62
:102030002A95D2F76095709580959095C695C6952E
:10204000C370C23051F080F4682979298A299B290C
:10205000C13071F00E94E315EACE682979298A29F6
:102060009B290E94FF15E3CE0E94E315C501B40130
:102070000E94C715DCCEE0E2ED0FE53108F062C04A
:10208000F0E0EB5BFF4E0C9401255A105A105A10E9
:102090005A105A105A105A105A105A105A105A10F0
:1020A0005A105A105A105A105A10671075107C1096
:1020B00083108D10DF708C2F8F71112321F00E94FF
:1020C00060158D2FF4CE0E9481158D2FFECE112329
:1020D00041F0053008F0ABCE8C2F8F710E94A61511
:1020E000A6CE063008F0A3CEF7CF8C2F8F71112328
:1020F00039F00E9460159BCE8C2F8F711123C9F38C
:102100000E94811594CE112329F08C2F8F710E948B
:102110004B158DCE0E9441158ACE112349F0CF7107
:102120008C2F0E94601563E08C2F0E94EE167FCEEC
:1021300081E00E94F716023008F479CE82E00E9416
:10214000F71675CE112329F0011159CE8C2F8F71FE
:10215000D0CF0111CDCE8C2F8F71D2CF4C2F4F709D
:102160006D2FC7010E943B030E946A1460CE4C2F62
:102170004F706D2FC7010E94EF0459CEDF91CF91B0
:102180001F910F91FF90EF90DF90BF90AF909F90C5
:102190008F9008950F931F93CF93DF93EC01988155
:1021A00089812B813C81232B39F08F3F19F481E009
:1021B0009F3F19F080E001C081E080FD17C0CE0193
:1021C0000E945403882391F0688179818A810E945A
:1021D000C0168C010E941B160E94E214B801CE01A9
:1021E000DF91CF911F910F910C94A70EDF91CF91AA
:1021F0001F910F9108950E94B2170E94C3170E9469
:1022000085170E94DC170E94B11C0E94041C90E0FC
:1022100080E00E94680C90E080E00C947E0C0E94AC
:10222000A1170C94FB100E94B616E92FE295EF70EF
:10223000E250EE30E0F4F0E0E05EFE4E0C9401255A
:102240002E112E113711371139113711371137115E
:102250002E112E113E11371137113E11803F19F00A
:1022600020F4803E20F481E00895843FE1F380E093
:102270000895803EC0F3813FD1F7F5CF93FB8827C7
:1022800080F90895CF93DF9300D000D01F92CDB78F
:10229000DEB70F900F900F900F900F90DF91CF91BE
:1022A0000895CF93DF9300D000D000D0CDB7DEB734
:1022B00026960FB6F894DEBF0FBECDBFDF91CF914B
:1022C00008951F93CF93DF93C0916D0116E0809125
:1022D0006E018C1304C0DF91CF911F910895D0E05F
:1022E0001C9FF0011D9FF00D1124E159FE4F40810C
:1022F000518162817381848195810E94511121965F
:10230000C770E5CF40919F015091A0016091A1015C
:102310007091A2018091A3019091A4010C9451119C
:102320001F93CF93DF938091A401807FD1F480919C
:10233000A1018823B1F080916D01D0916E01B0911F
:102340009F01C091A0014091A2015091A301A1E081
:10235000BF3F09F0A0E0BA016095709516E0D81370
:1023600004C0DF91CF911F91089521E041155105DF
:1023700021F02A2FCF3F09F020E090E020FD38C067
:10238000189FF001199FF00D1124E159FE4F218192
:102390002C132EC020812B132BC02281211128C089
:1023A000238134812417350700F1241B350B283C89
:1023B0003105F0F42091A4012F7020612093A40135
:1023C00026E0289FF001299FF00D1124EC58FE4FC4
:1023D00080818F70806180838FE991E00E94CA10B4
:1023E000DF91CF911F910C946111260F371FDFCF22
:1023F00001968770B4CFAF92BF92CF92DF92EF92E7
:10240000FF920F931F93CF93DF93CDB7DEB7619702
:102410000FB6F894DEBF0FBECDBF8C0185E0F8018A
:10242000DE011D9601900D928A95E1F7D8014C913D
:1024300011965C9111971296EC9030919F016091EA
:10244000A0018091A2019091A30121E0009731F0B9
:102450006F3F19F421E03F3F09F020E0B22FB17047
:10246000BB2E20FD80C1F801C380D480A090A101C3
:10247000AA2009F427C1C816D906D0F1D601A81B95
:10248000B90BCD01FF24F394883C910508F0F12CA1
:102490008091A401982F907FFF2009F4CAC0911168
:1024A00087C0FE2C651329C0341327C0E11025C056
:1024B0008F7080618093A4010E9482118FE991E066
:1024C0000E94CA108091A401F80185838F2D619626
:1024D0000FB6F894DEBF0FBECDBFDF91CF911F9135
:1024E0000F91FF90EF90DF90CF90BF90AF90089545
:1024F000809590958C0D9D1DC5CF81E0CD2831F044
:102500005F3F19F481E04F3F09F080E080FD24C077
:1025100081E08E25F82FF170DF2E80FF3FC0809183
:102520006D0120916E0136E0821318C04D875E87E1
:102530008D859E850E94B616292F22952F702230F8
:1025400008F1243030F59F7009F1D80115969C915F
:10255000907FE1F4FB2CBACF80E0DCCF90E0389F95
:10256000F001399FF00D1124E159FE4F618156139E
:1025700006C06081461303C062816E110FC00196D0
:102580008770D2CF9F7011F0882321F3805E88304E
:1025900008F3C8010E94CA10BD2CDCCFEE2009F45C
:1025A00095CF8091A40181608093A401F12C8ECFFE
:1025B000651312C0341310C0E1100EC0F8018583FA
:1025C000C8010E94CA1086E0F801AFE9B1E00190AD
:1025D0000D928A95E1F741C04D875E878D859E8576
:1025E0000E941311882309F4C8C0EE2009F4C5C065
:1025F0008091A401803270F020919F013091A00160
:1026000038872F831986DB86CA868C87CE0107968A
:102610000E94CA1086E0F801AFE9B1E001900D9286
:102620008A95E1F70E9490110E948211FF24F39491
:102630004DCF911115C07C2DD98AC88A6E2D8989FC
:102640000E9442118FE991E00E94CA1086E0EFE9F2
:10265000F1E0DF011D928A95E9F70E94821136CFE1
:10266000651312C0341310C0E1100EC0F801858349
:10267000C8010E94CA10EFE9F1E086E0DF011D9277
:102680008A95E9F7FA2C22CF4D875E878D859E8546
:102690000E941311882309F470C0EE2009F46DC064
:1026A0008091A401803208F4B5CF20919F01309130
:1026B000A0013A8329831B82DD82CC828E83CE01E6
:1026C0000196A6CFC816D90638F1F601E81BF90B1A
:1026D000CF01F12C883C910508F03DC0FE2CEE2086
:1026E00009F44BC0651326C0341324C08091A401A3
:1026F00080FD17C0982F907FA1F0D80115968C937C
:102700001597903F09F45CCF982F907F905F8F7062
:10271000892B15968C9354CF809590958C0D9D1D8B
:10272000D8CF86E0F801AFE9B1E001900D928A952B
:10273000E1F7CCCE4D875E878D859E850E94131173
:10274000811168CF8091A40181608093A401C801A8
:102750000E94CA10BBCE7C2DD98AC88A6E2D898969
:102760000E94421173CFEE2041F04D875E878D8528
:102770009E850E94131181114DCFC8010E94CA107D
:1027800055CF1F93CF93DF93CDB7DEB72C970FB6FE
:10279000F894DEBF0FBECDBF4F83588769877A8715
:1027A0008B879C87CE0107960E94FB11882309F432
:1027B00042C09F8188852A853B85232B39F08F3F36
:1027C00019F481E09F3F19F080E001C081E080FDB5
:1027D00008C04F81588569857A858B859C850E94C4
:1027E000511116E080916D0190916E01891709F4E5
:1027F00067C0819FC001112481599E4F0E94FB1127
:10280000882309F45DC0E0916D011E9FF001112441
:10281000E159FE4F408151816281738184819581AC
:102820000E94511180916D0190E001968770992767
:1028300080936D01D7CF86E0FE013796DE011196B9
:1028400001900D928A95E1F79F8188852A853B85C5
:10285000232B39F08F3F19F481E09F3F19F080E07E
:1028600001C081E080FDBDCF20916E0130E0C90143
:1028700001968770992740916D014817190699F0C4
:1028800096E0929FD001939FB00D1124A159BE4FA5
:10289000FE01319601900D929A95E1F780936E01B9
:1028A0000E9461119ECF0E940F1110926E01109232
:1028B0006D0186E0EFE9F1E0DF011D928A95E9F70D
:1028C0002C960FB6F894DEBF0FBECDBFDF91CF912F
:1028D0001F910895EF92FF920F931F93CF93DF9371
:1028E0008C01892B81F0F12CEE24E394E8012196F0
:1028F000F8018491843770F4843008F05FC081302F
:10290000B1F08230A1F1DF91CF911F910F91FF9033
:10291000EF900895853709F44CC008F43DC09CE75A
:10292000980F903780F78F770E944A0E49C00E5F4C
:102930001F4FFE01849190E2980F983060F48770E9
:10294000FE2D01C0FF0F8A95EAF78F2F0E94B51761
:102950000E94DC1702C00E946E0D8F2D815030F254
:10296000EFE9FFE03197F1F700C00000F7CF0E5F0D
:102970001F4FFE01849190E2980F983050F48770B9
:10298000FE2D01C0FF0F8A95EAF78F2F0E94BB171B
:10299000DFCF0E944A0EE1CF0E5F1F4FFE01C491B0
:1029A000C150D8F28FE99FE00197F1F700C0000015
:1029B000F7CF0E5F1F4FFE01F490CFCF0E946E0D38
:1029C0008E01CBCF08956093B3017093B4018093CF
:1029D000B5019093B6010C94FB100F931F930091D7
:1029E000B3011091B4012091B5013091B601DC0121
:1029F000CB01802B912BA22BB32B8093B30190930F
:102A0000B401A093B501B093B6011F910F910C943E
:102A1000FB100F931F930091B3011091B40120910B
:102A2000B5013091B601DC01CB0180239123A223B3
:102A3000B3238093B3019093B401A093B501B093F5
:102A4000B6011F910F910C94FB100F931F930091EF
:102A5000B3011091B4012091B5013091B601DC01B0
:102A6000CB0180279127A227B3278093B3019093AE
:102A7000B401A093B501B093B6011F910F910C94CE
:102A8000FB101092AF011092B0011092B1011092A0
:102A9000B2010C94FB1041E050E060E070E004C033
:102AA000440F551F661F771F8A95D2F74093AF01D9
:102AB0005093B0016093B1017093B2010C94FB107C
:102AC00041E050E060E070E004C0440F551F661F15
:102AD000771F8A95D2F78091AF019091B001A091B4
:102AE000B101B091B201842B952BA62BB72B80930B
:102AF000AF019093B001A093B101B093B2010C94D7
:102B0000FB1041E050E060E070E004C0440F551F4E
:102B1000661F771F8A95D2F74095509560957095FE
:102B20008091AF019091B001A091B101B091B2013B
:102B300084239523A623B7238093AF019093B001FC
:102B4000A093B101B093B2010C94FB1041E050E0AE
:102B500060E070E004C0440F551F661F771F8A9520
:102B6000D2F78091AF019091B001A091B101B091E5
:102B7000B20184279527A627B7278093AF019093AA
:102B8000B001A093B101B093B2010C94FB100F936C
:102B90001F930091AF011091B0012091B1013091CC
:102BA000B201DC01CB01802B912BA22BB32B8093A4
:102BB000AF019093B001A093B101B093B2011F9106
:102BC0000F910C94FB100F931F930091AF01109184
:102BD000B0012091B1013091B201DC01CB01802321
:102BE0009123A223B3238093AF019093B001A093CC
:102BF000B101B093B2011F910F910C94FB100F9390
:102C00001F930091AF011091B0012091B10130915B
:102C1000B201DC01CB0180279127A227B327809343
:102C2000AF019093B001A093B101B093B2011F9195
:102C30000F910C94FB100895990F990F890F982FFD
:102C4000977071E001C0770F9A95EAF7869586959F
:102C5000869525E0829FC001112450E040E0A62F18
:102C6000B0E0FC01E40FF51FEB55FE4F60819D01C4
:102C7000042E02C0369527950A94E2F7217021951B
:102C800026272723262720834F5F5F4F4530510596
:102C900041F70895990F990F890F982F977086958E
:102CA0008695869525E0829FA001112470E060E062
:102CB00080E0FA01E60FF71FEB55FE4F208130E070
:102CC000092E02C0369527950A94E2F72170332722
:102CD000062E01C0220F0A94EAF7822B6F5F7F4F06
:102CE0006530710531F70895BF92CF92DF92EF9270
:102CF000FF920F931F93CF93DF938C01C090AF018E
:102D0000D090B001E090B101F090B2018091B30198
:102D10009091B401A091B501B091B601C82AD92A09
:102D2000EA2AFB2ACFE1D0E0BC2ED701C6010C2E47
:102D300004C0B695A795979587950A94D2F780FD1C
:102D40000EC0219788F7B12C8B2DDF91CF911F9169
:102D50000F91FF90EF90DF90CF90BF900895B80152
:102D60008C2F0E940C05019761F3EECFCF93DF9378
:102D7000EC010E947416BE01DF91CF910C940C05FA
:102D80001F93CF93DF93EB0190916C01992331F066
:102D9000CB01DF91CF911F910C94B616882379F067
:102DA000CB010E947416182F682FCE010E941C16AA
:102DB000BE01812FDF91CF911F910C940C05CB01A7
:102DC0000E944A16182FF4CF8091B70185958595FA
:102DD000859508958091B7018770089598E0899F3F
:102DE00090011124622B6093B7010C9460159091AF
:102DF000B701809589238093B701282F277061F44C
:102E0000282F082E000C330B9217130629F08595F6
:102E1000859585950C94811508959091B7019770CB
:102E200081E009F480E00895909113019923E1F085
:102E30009091150297FF18C0E82FE695E695E69564
:102E4000EF3139F12091010130910201E20FF32FAE
:102E5000F11D877021E030E001C0220F8A95EAF76A
:102E60008181822B8183089520910101309102019B
:102E7000F90132969FEF40E05191851751F09F3F45
:102E800019F4511101C0942F4F5F4E31A9F79F3FA4
:102E900009F40895290F311D97FD3A95F9018283B0
:102EA0000895909113019923F1F09091150297FFE5
:102EB0001AC0E82FE695E695E695EF3129F12091C5
:102EC000010130910201E20FF32FF11D282F27702D
:102ED00081E090E001C0880F2A95EAF78095918102
:102EE0008923818308952091010130910201F90124
:102EF0003296205E3F4F9191891303C0DF011197F5
:102F00001C92E217F307B9F7089581E090E0E09191
:102F10000101F0910201E80FF91F10820196803241
:102F20009105A9F708959091DB01892B8093DB012E
:102F30000895982F90958091DB0189238093DB0180
:102F400008951092DB0108959091DA01892B809306
:102F5000DA010895982F90958091DA018923809362
:102F6000DA0108951092DA0108959091D901892B20
:102F70008093D9010895982F90958091D901892344
:102F80008093D90108951092D90108958093B801D2
:102F900008951092B8010895209101013091020125
:102FA000F9013196205E3F4F80E0919191118F5F42
:102FB000E217F307D1F70895E0910101F0910201C2
:102FC0008091DB018083E0910101F0910201808119
:102FD0009091DA01892B8083E0910101F091020147
:102FE00080819091D901892B80839091B801992398
:102FF00061F0E0910101F09102018081892B8083D1
:103000000E94CC1781111092B8018091010190911A
:1030100002010C94520C6DEE7EEF90E080E00E9475
:103020003E2560E082E090E00E94202560E083E0A1
:1030300090E00E94202560E084E090E00E9420253E
:1030400060E085E090E00E94202540E050E0BA0179
:1030500088E090E00C94322590E080E00E941A25F0
:1030600021E08D3E9E4F09F020E0822F089582E0FE
:1030700090E00C940C25682F82E090E00C942025C1
:1030800083E090E00C940C25682F83E090E00C9492
:10309000202584E090E00C940C25682F84E090E0DB
:1030A0000C94202580911B02843039F11092DD01AF
:1030B00088E190E020E40FB6F894A8958093600032
:1030C0000FBE2093600080E00E94ED0483B7817FF3
:1030D000846083BF83B7816083BF7894889583B70A
:1030E0008E7F83BF0FB6F894A895809160008861A9
:1030F00080936000109260000FBE089508950895B7
:10310000CF930E947E180E94A3070E947F18C0E000
:103110008C2F0E945008811105C0CF5FC330C1F7CA
:10312000CF91089581E0FCCF0E940F110E94460CC0
:103130000C94ED041F920F920FB60F9211248F93EF
:103140009F93AF93BF938091DD01811113C0809154
:10315000110290911202A0911302B09114024196B3
:10316000A11DB11D8093110290931202A09313022E
:10317000B0931402BF91AF919F918F910F900FBEAA
:103180000F901F90189582E084BD93E095BD9AEF53
:1031900097BD80936E0008952FB7F8948091110227
:1031A00090911202A0911302B09114022FBF0895C2
:1031B000CF92DF92EF92FF920F931F932FB7F89465
:1031C0004091110250911202609113027091140209
:1031D0002FBF6A017B01EE24FF248C0130E020E048
:1031E000C016D106E206F30650F0481B590BCA017F
:1031F0001F910F91FF90EF90DF90CF900895415075
:103200005109F3CF1F920F920FB60F9211248F9393
:103210009F93AF93BF938091110290911202A0915E
:103220001302B09114020196A11DB11D80931102E9
:1032300090931202A0931302B0931402BF91AF9126
:103240009F918F910F900FBE0F901F9018950E9425
:10325000AD20F8942FEF87EA91E62150804090400E
:10326000E1F700C0000087E090EBDC0180932402CE
:1032700090932502A0932602B093270288E19CE058
:103280000FB6F894A895809360000FBE90936000ED
:10329000FFCFCF92DF92EF92FF920F931F93CF93C6
:1032A000C0E0E82EF12C8C2F0E94500810E000E0C6
:1032B000C82ED12CC601002E02C0959587950A9480
:1032C000E2F780FD11C00F5F1F4F0430110591F729
:1032D000CF5FC33041F780E0CF911F910F91FF90F6
:1032E000EF90DF90CF900895602F7C2F80E00E94B8
:1032F000F004E816F90639F781E0EECFCF93C82F36
:103300008CE20E944919882321F08C2FCF910C94D4
:10331000491980E0CF910895CF930E942C18811114
:1033200002C00E940B18C5E608C00E94A3078FE3E5
:103330009CE90197F1F700C00000C150B1F789E2A4
:103340000E947E198111EFC08AE20E947E198111CC
:103350000E940B1885E00E947E1981110E94271996
:103360000E9437188093DC0187E00E947E19882331
:1033700071F08BE10E947E19882309F4B1C090910D
:10338000DC01892F8D7F91FF82608093DC01809129
:10339000DC010E943B180E94491890E090931602AD
:1033A0008093150280EE0E947E19882341F090914F
:1033B0001502892F8E7F90FF81608093150289E32B
:1033C0000E947E19882341F090911502892F8D7FEC
:1033D00091FF82608093150282EE0E947E198823FD
:1033E00041F090911502892F8B7F92FF846080932A
:1033F000150286EE0E947E19882341F090911502F5
:10340000892F877F93FF88608093150283EE0E9447
:103410007E19882341F090911502892F8F7E94FFA9
:1034200080618093150285E30E947E19882341F014
:1034300090911502892F8F7D95FF806280931502F0
:1034400081E30E947E19882341F090911502892F13
:103450008F7B96FF80648093150281E10E947E1924
:10346000882341F090911502892F97FB87F98058A6
:1034700080931502809115020E944D1887E20E94E8
:103480007E19C82F8EE10E947E198111C2608FE1E2
:103490000E947E198111C46080E20E947E19811110
:1034A000C86081E20E947E198111C06182E20E949F
:1034B0007E198111C06283E20E947E198111C0646D
:1034C00084E20E947E19882341F1C0688C2F0E94FB
:1034D00044186C2F70E090E080E0CF910C94E314DE
:1034E0008EE00E947E19882339F09091DC01892FAB
:1034F0008B7F92FF846049CF80E10E947E1990917A
:10350000DC01882329F0892F877F93FF88603DCFD6
:10351000892F8E7F90FF816038CFC111D7CF0E9455
:103520004018682FD7CFCF9108958091E00180FF98
:1035300012C06091060185E0689FB0011124759565
:1035400067957595679560387105A8F561157105E2
:10355000A1F1862F089581FF09C06091060185E0E1
:10356000689FB001112475956795EDCF82FF07C064
:103570006091060185E0689FB0011124E4CF20919D
:10358000E1012223A9F0909105016091060185E0F7
:10359000689FB00111242917B0F6269FA001279F2C
:1035A000500D1124692F70E0CA010E94ED24CBCF89
:1035B00065E070E0CECF8FE7089581E008958091B7
:1035C000E00180FF0CC06091040170E07595679583
:1035D000759567956115710549F1862F089581FFED
:1035E00006C06091040170E075956795F3CF609116
:1035F000040182FD0BC09091E1019923A1F060913B
:10360000030180910401961738F0682F70E060384C
:10361000710500F38FE70895899FC001112470E0C0
:103620000E94ED24F4CF61E070E0D7CF81E00895EF
:10363000803F31F40E94951A81958093E4010895AA
:10364000813F19F40E94951AF8CF823F31F40E940D
:10365000951A81958093E3010895833F19F40E94A0
:10366000951AF8CF893F29F40E94DF1A8093E5016B
:1036700008958A3F21F40E94DF1A8195F7CF8B3F8E
:1036800031F40E94DF1A81958093E60108958C3F02
:1036900019F40E94DF1AF8CF843F31F48091E201DF
:1036A00081608093E2010895853F21F48091E201D9
:1036B0008260F7CF863F21F48091E2018460F1CFF0
:1036C000873F21F48091E2018860EBCF883F21F4AD
:1036D0008091E2018061E5CF8D3F31F48091E0017E
:1036E00081608093E00108958E3F21F48091E00194
:1036F0008260F7CF8F3FB9F78091E0018460F1CF0E
:10370000803FC1F48091E40187FD1092E401809133
:10371000E30181110EC08091E40181110AC0809102
:10372000E501811106C08091E601811102C010926D
:10373000E1010895813F29F48091E40118162CF3EA
:10374000E6CF9091E301823F29F497FFE0CF1092FA
:10375000E301DDCF833F19F41916CCF3D8CF893FAD
:1037600039F48091E501181694F61092E501CFCF57
:103770008A3F29F48091E50187FFC9CFF6CF8B3FBF
:1037800039F48091E60187FFC2CF1092E601BFCFE6
:103790008C3F29F48091E6011816BCF3B8CF843F22
:1037A00031F48091E2018E7F8093E201B0CF853FBA
:1037B00021F48091E2018D7FF7CF863F21F4809143
:1037C000E2018B7FF1CF873F21F48091E201877F77
:1037D000EBCF883F21F48091E2018F7EE5CF8D3FD2
:1037E00031F48091E0018E7F8093E00190CF8E3F95
:1037F00021F48091E0018D7FF7CF8F3F09F087CFD3
:103800008091E0018B7FF0CF82EE91E00E945D0C11
:103810000E94CC189093DF018093DE0108951F93DE
:10382000CF93DF938091DE019091DF010E94D81841
:10383000AC019091E1012091070130E0911106C0A7
:10384000209108018AE0289F900111244217530714
:1038500080F08091E301C091E4011091E501D091E5
:10386000E60181110AC0C11178C0111176C0D111D1
:1038700074C0DF91CF911F9108959F3F19F09F5F12
:103880009093E101181624F40E94951A8093E301A5
:103890008091E30187FF05C00E94951A819580936E
:1038A000E3011C1624F40E94951A8093E401809190
:1038B000E40187FF05C00E94951A81958093E40179
:1038C0006091E301662331F1C091E401CC2311F151
:1038D000062E000C770B880B990B0E94E02323E344
:1038E00033E343E35FE30E9444240E94A8236093F0
:1038F000E3016C2FCC0F770B880B990B0E94E02310
:1039000023E333E343E35FE30E9444240E94A823BC
:103910006093E401111624F40E94DF1A8093E501FC
:103920008091E50187FF05C00E94DF1A8195809391
:10393000E5011D1624F40E94DF1A8093E6018091B0
:10394000E60187FF05C00E94DF1A81958093E6019A
:10395000DF91CF911F910C94041C9F3F09F08FCFF2
:10396000A0CF85E0E2EEF1E0DF011D928A95E9F754
:103970001092E1011092E0010895809107020895EC
:10398000CF93DF9300D01F92CDB7DEB79C0180911B
:103990001B02843019F593E099833B832A8390932B
:1039A000E9008FEF9091E800815095FD06C095EDFC
:1039B0009A95F1F700008111F5CF8091E80085FF1D
:1039C0000DC050E040E063E070E0CE0101960E943F
:1039D0001D1F8091E8008E778093E8000F900F9074
:1039E0000F90DF91CF910895CF93DF9300D01F9276
:1039F000CDB7DEB720911B02243031F522E02983B8
:103A0000805891099B838A8383E08093E9008FEF3C
:103A10009091E800815095FD06C095ED9A95F1F7DB
:103A200000008111F5CF8091E80085FF0DC050E0C6
:103A300040E063E070E0CE0101960E941D1F80917E
:103A4000E8008E778093E8000F900F900F90DF9141
:103A5000CF9108959C0180911B028430F9F482E09B
:103A60008093E9009FEF8091E800915085FD06C0AA
:103A700085ED8A95F1F700009111F5CF8091E8006E
:103A800085FF0CC050E040E065E070E0C9010E9495
:103A90001D1F8091E8008E778093E8000895CF93F2
:103AA000DF93EC0180911B028430F1F490911301BB
:103AB0009923E9F09091150297FF19C08093E900CE
:103AC0008FEF9091E800815095FD06C095E19A95A1
:103AD000F1F700008111F5CF8091E80050E040E05F
:103AE00060E270E085FD1AC0DF91CF91089581E01A
:103AF0008093E9008FEF9091E800815095FD06C01A
:103B000095ED9A95F1F700008111F5CF8091E800CD
:103B100085FFEACF50E040E068E070E0CE010E940F
:103B20001D1F8091E8008E778093E80080E2FE01FF
:103B3000A7EEB1E001900D928A95E1F7D5CF809183
:103B40001A02811109C00E94AD200E940A218091B1
:103B5000E20084608093E200089510921A020895B2
:103B6000089508950C94941842E061EC81E00E945D
:103B70002B2042E061EC82E00E942B2042E061ECCD
:103B800083E00E942B2042E261EC84E00C942B2025
:103B900080911D02833009F455C030F4813071F1F9
:103BA000823009F491C008958A3009F47DC08B30C9
:103BB00009F463C0893009F044C080911C0281324D
:103BC00009F03FC08091200290912102009711F0EE
:103BD0000397B9F58091E800877F8093E800809192
:103BE000E80082FF2AC08091F10080930702809153
:103BF000E8008B778093E8000C945F2080911C0292
:103C0000813AF9F48091E800877F8093E800809101
:103C1000200290912102892B61F460E287EE91E00D
:103C200070E00E946C1F8091E8008B778093E80021
:103C3000089560E090E080E0F3CF80911B02811155
:103C4000CECF089580911C02813AD9F7809120024D
:103C500090912102892BA9F78091E800877F8093BA
:103C6000E8008091E80080FFFCCF809113018093F1
:103C7000F1008091E8008E77BDCF80911C028132E7
:103C800001F78091200290912102892BD1F6809139
:103C9000E800877F8093E8000E945F2080911E02E9
:103CA000809313010C940F1180911C02813249F60C
:103CB0008091E800877F8093E8000E945F208091D8
:103CC0001F0280930802089580911C02813A09F036
:103CD000B8CF8091E800877F8093E8008091E8006A
:103CE00080FFFCCF80910802C2CF84B7877F84BF5A
:103CF0000FB6F894A8958091600088618093600069
:103D0000109260000FBE80E8809361001092610005
:103D10000E94950C0E94AD200E940A218091E20031
:103D200084608093E20078940E948C230E94970C18
:103D300089E091E00E94410C80911B02853029F0BE
:103D40000E949F0C0E940E0CF7CF0E945218809187
:103D50001902882389F30E948018882369F30E943E
:103D6000071FEACF292F33272330310579F158F483
:103D700021303105F1F02230310519F190E080E079
:103D800030E020E01AC02132310599F122323105AC
:103D9000A9F7643098F770E0FB01EE0FFF1FE15EBA
:103DA000FE4F20813181655E7E4FFB01808190E076
:103DB00004C082E190E026ED34E0FA0131832083F3
:103DC00008958DE690E029E634E0F7CF9927813019
:103DD000910561F028F0029789F6E9E3F4E002C06A
:103DE000E5E6F4E0849190E09F01E7CFEDE4F4E0B4
:103DF000F9CF643008F0C2CFE62FF0E0EE0FFF1FDE
:103E0000E95DFE4F2081318189E090E0D6CF80E1ED
:103E100089BD82E189BD09B400FEFDCF8091D80043
:103E20008F7D8093D8008091E00082608093E000D5
:103E30008091E00081FDFCCF0895AF92BF92CF92B8
:103E4000DF92FF920F931F93CF93DF936C01EB01EF
:103E50008A010E947E20F82E811123C001151105D0
:103E600039F0F80180819181C81BD90BC80ED91E89
:103E7000B12CA12C2097A9F08091E80085FD22C0EB
:103E80008091E8008E778093E80001151105A1F07C
:103E9000F80180819181A80EB91EB182A08285E0CF
:103EA000F82E8F2DDF91CF911F910F91FF90DF9012
:103EB000CF90BF90AF9008950E947E208823D1F2CA
:103EC000F82EEFCFF60181916F018093F1002197D9
:103ED000FFEFAF1ABF0ACECFFC0180912202909172
:103EE000230286179707A0F06115710529F49091B8
:103EF000E8009E779093E80090E06115710551F419
:103F0000911108C08091E80082FF35C080E00895DB
:103F1000BC01F2CF80911B028823C9F18530C9F121
:103F20008091E80083FD31C08091E80082FDEACFF6
:103F30008091E80080FFE1CF2091F3008091F200B2
:103F4000322F282F6115710519F02830310558F0EE
:103F500091E02830310509F090E02091E8002E77BB
:103F60002093E800CACF81918093F10061507109DC
:103F70002F5F3F4FE7CF80911B02882341F08530B0
:103F800041F08091E80083FFBDCF81E0089582E099
:103F9000089583E00895FC0180912202909123020C
:103FA00086179707A0F06115710529F48091E80044
:103FB0008E778093E80090E06115710551F49111BE
:103FC00008C08091E80082FF36C080E00895BC01FF
:103FD000F2CF80911B028823D1F18530D1F18091FD
:103FE000E80083FD32C08091E80082FDEACF809135
:103FF000E80080FFE1CF2091F3008091F200322FA2
:10400000282F6115710519F02830310558F091E01D
:104010002830310509F090E08091E8008E77809398
:10402000E800CACF84918093F10031966150710904
:104030002F5F3F4FE6CF80911B02882341F08530F0
:1040400041F08091E80083FFBCCF81E0089582E0D9
:10405000089583E00895982F973028F08F7080930B
:10406000E90081E008959093E900242F762F50E035
:10407000981731F07091EC002091ED005091F00014
:1040800021FD02C09F5FE8CF3091EB003E7F30936F
:10409000EB003091ED003D7F3093ED003091EB006F
:1040A00031603093EB007093EC002093ED0050935F
:1040B000F0002091EE0027FDE5CF80E0089580918B
:1040C0001C0287FF13C08091E80082FF06C0809128
:1040D000E8008B778093E80004C080911B02811177
:1040E000F2CF089580911B028823D9F38091E800D4
:1040F00080FFF8CF8091E8008E77ECCF2091E4002C
:104100003091E50085E69091EC0090FF06C090911B
:10411000E80090FF06C080E008959091E80092FDCD
:10412000FACF90911B02992391F0953091F09091E4
:10413000EB0095FD10C04091E4005091E50024177C
:10414000350709F381509A01F1F684E0089582E081
:10415000089583E0089581E008950E941B210E9444
:104160002321E0EEF0E0808181608083E8EDF0E0E3
:1041700080818F77808319BCA7EDB0E08C918E7F12
:104180008C9380818F7E808310921A0208950F9302
:104190001F93CF93DF930E941B210E942321C8ED20
:1041A000D0E088818F778883888180688883888140
:1041B0008F7D888319BC10921B02109217021092F7
:1041C00019021092180200EE10E0F80180818B7F36
:1041D000808388818160888342E060E080E00E9483
:1041E0002B20E1EEF0E080818E7F8083E2EEF0E034
:1041F000808181608083808188608083F8018081F4
:104200008E7F8083888180618883DF91CF911F9129
:104210000F910895E8EDF0E080818F7E8083E7EDD7
:10422000F0E080818160808384E082BF81E08093C0
:104230001A020C94C720E8EDF0E080818E7F808325
:104240001092E20008951092DA001092E1000895B1
:104250001F920F920FB60F9211242F933F934F93FB
:104260005F936F937F938F939F93AF93BF93EF93DE
:10427000FF938091E10082FF0BC08091E20082FFFA
:1042800007C08091E1008B7F8093E1000E948B2327
:104290008091DA0080FF19C08091D80080FF15C09E
:1042A0008091DA008E7F8093DA008091D90080FFC0
:1042B00094C080E189BD82E189BD09B400FEFDCFD3
:1042C00081E080931B020E949F1D8091E10080FF8E
:1042D00019C08091E20080FF15C08091E2008E7FBE
:1042E0008093E2008091E20080618093E2008091FF
:1042F000D80080628093D80019BC85E080931B02AF
:104300000E94B11D8091E10084FF29C08091E200EC
:1043100084FF25C080E189BD82E189BD09B400FE2A
:10432000FDCF8091D8008F7D8093D8008091E100EF
:104330008F7E8093E1008091E2008F7E8093E20087
:104340008091E20081608093E200809117028823CF
:1043500009F449C084E080931B020E94B21D809141
:10436000E10083FF29C08091E20083FF25C0809196
:10437000E100877F8093E10082E080931B0210922E
:1043800017028091E1008E7F8093E1008091E2002E
:104390008E7F8093E2008091E20080618093E20052
:1043A00042E060E080E00E942B208091F000886075
:1043B0008093F0000E94B01DFF91EF91BF91AF91EB
:1043C0009F918F917F916F915F914F913F912F912D
:1043D0000F900FBE0F901F90189519BC10921B02E2
:1043E0000E94AD1D72CF8091E30087FD02C081E085
:1043F000B2CF83E0B0CF1F920F920FB60F9211246D
:104400002F933F934F935F936F937F938F939F93DC
:10441000AF93BF93CF93EF93FF93C091E900CF7019
:104420008091EC001092E9008091F000877F8093EA
:10443000F00078940E9437221092E9008091F000F9
:1044400088608093F000C093E900FF91EF91CF91D5
:10445000BF91AF919F918F917F916F915F914F919C
:104460003F912F910F900FBE0F901F9018951F93A3
:10447000CF93DF93CDB7DEB7AA970FB6F894DEBF20
:104480000FBECDBFECE1F2E08091F100819322E01C
:10449000E432F207C9F70E94C81D8091E80083FF4B
:1044A00042C080911C0290911D029A3008F03BC0DE
:1044B000E92FF0E0E25AFD4D0C94012568228C2290
:1044C00093228C229322E722092393225E236B23DB
:1044D000803879F0823839F5809120028F7080938E
:1044E000E9008091EB0085FB882780F91092E900B4
:1044F00006C08091180290911902911182609091EA
:10450000E800977F9093E8008093F1001092F1000B
:104510008091E8008E772DC0282F2D7F21F48823ED
:10452000D1F0823059F18091E80083FF0AC0809178
:10453000E800877F8093E8008091EB0080628093A1
:10454000EB00AA960FB6F894DEBF0FBECDBFDF9189
:10455000CF911F91089580911E02813021F79330F1
:1045600009F080E0809319021092E9008091E80040
:10457000877F8093E8000E945F20D5CF80911E0244
:104580008111F2CF809120028F7069F28093E9004F
:104590002091EB0020FFE8CF933031F48091EB00C5
:1045A00080628093EB00E0CF9091EB00906190935C
:1045B000EB0021E030E001C0220F8A95EAF720935A
:1045C000EA001092EA008091EB008860EACF811146
:1045D000AACF10911E021F778091E3008078812B73
:1045E0008093E3008091E800877F8093E8000E9439
:1045F0005F208091E80080FFFCCF8091E30080681D
:104600008093E30083E0111101C082E080931B02DC
:104610008ACF8058823008F086CF80911E02909118
:104620001F028C3D23E09207A1F583E08A838AE292
:1046300089834FB7F894DE01139620E03EE051E203
:10464000E32FF0E050935700E49120FF03C0E29580
:10465000EF703F5FEF708E2F90E0EA30C0F0C796AA
:104660008D939D932F5F243159F74FBF8091E800C0
:10467000877F8093E8006AE270E0CE0101960E9495
:104680006C1F8091E8008B778093E8004CCFC09638
:10469000E7CFAE014F5F5F4F609120020E94B21ED4
:1046A000BC01892B09F43FCF9091E800977F90934C
:1046B000E80089819A810E94CB1FE3CF803809F0FE
:1046C00032CF8091E800877F8093E80080911702C5
:1046D0008093F1001DCF811126CF90911E02923060
:1046E00008F021CF8091E800877F8093E8009093C5
:1046F00017020E945F2080911702882331F084E026
:1047000080931B020E94B41D0ECF8091E30087FDB1
:10471000F6CF81E0F5CF0895CF9380911B028823D7
:1047200099F0C091E900CF708091EC0080FD0EC03F
:1047300080E0C82B1092E9008091E80083FD0E9480
:104740003722CF70C093E900CF91089580E8F1CF70
:104750000E94AF236894B1110C943E2408950E94E6
:10476000232488F09F5798F0B92F9927B751B0F0BC
:10477000E1F0660F771F881F991F1AF0BA95C9F7E5
:1047800014C0B13091F00E943D24B1E008950C9422
:104790003D24672F782F8827B85F39F0B93FCCF3D5
:1047A000869577956795B395D9F73EF49095809562
:1047B000709561957F4F8F4F9F4F0895E89409C082
:1047C00097FB3EF490958095709561957F4F8F4F44
:1047D0009F4F9923A9F0F92F96E9BB279395F6955A
:1047E000879577956795B795F111F8CFFAF4BB0FD8
:1047F00011F460FF1BC06F5F7F4F8F4F9F4F16C03C
:10480000882311F096E911C0772321F09EE8872FC5
:10481000762F05C0662371F096E8862F70E060E081
:104820002AF09A95660F771F881FDAF7880F9695FA
:10483000879597F9089557FD9058440F551F59F0E3
:104840005F3F71F04795880F97FB991F61F09F3F7D
:1048500079F087950895121613061406551FF2CFA6
:104860004695F1DF08C0161617061806991FF1CFF6
:1048700086957105610508940895E894BB2766271D
:104880007727CB0197F908950E9457240C94C824E8
:104890000E94BA2438F00E94C12420F0952311F020
:1048A0000C94B1240C94B72411240C943E240E943F
:1048B0001B2470F3959FC1F3950F50E0551F629F25
:1048C000F001729FBB27F00DB11D639FAA27F00D69
:1048D000B11DAA1F649F6627B00DA11D661F829F90
:1048E0002227B00DA11D621F739FB00DA11D621F75
:1048F000839FA00D611D221F749F3327A00D611D92
:10490000231F849F600D211D822F762F6A2F112473
:104910009F5750409AF0F1F088234AF0EE0FFF1FA6
:10492000BB1F661F771F881F91505040A9F79E3FFD
:10493000510580F00C94B1240C943E245F3FE4F3C5
:10494000983ED4F3869577956795B795F795E79553
:104950009F5FC1F7FE2B880F911D9695879597F95C
:10496000089597F99F6780E870E060E008959FEFF1
:1049700080EC089500240A941616170618060906F6
:10498000089500240A9412161306140605060895C5
:10499000092E0394000C11F4882352F0BB0F40F44D
:1049A000BF2B11F460FF04C06F5F7F4F8F4F9F4F8D
:1049B0000895AA1BBB1B51E107C0AA1FBB1FA61766
:1049C000B70710F0A61BB70B881F991F5A95A9F7B8
:1049D00080959095BC01CD01089597FB072E16F4A4
:1049E000009407D077FD09D00E94D92407FC05D098
:1049F0003EF4909581959F4F0895709561957F4FF6
:104A00000895EE0FFF1F0590F491E02D099481E0C9
:104A100090E0F8940C945425F999FECF92BD81BD95
:104A2000F89A992780B50895A6E1B0E044E050E0F7
:104A30000C944625A8E1B0E042E050E00C944625F5
:104A4000262FF999FECF92BD81BDF89A019700B447
:104A5000021639F01FBA20BD0FB6F894FA9AF99AE7
:104A60000FBE08950396272F0E9421250E9420251E
:104A7000252F0E942125242F0C9421250196272FD4
:104A80000E9421250C942025DC01CB01FC01F99921
:104A9000FECF06C0F2BDE1BDF89A319600B40D928A
:0C4AA00041505040B8F70895F894FFCF43
:104AAC00FFB9012808140A321EBD1C4F1D2A1DF423
:104ABC001CC01C0197C63435909491404D3639A4D6
:104ACC000557052105E8047B049404AD04C60400D5
:00000001FF
