:100000000C94EC010C9433020C9433020C943302E4
:100010000C9433020C9433020C9433020C9433028C
:100020000C9433020C9433020C94C91B0C949C1C4A
:100030000C943D130C9433020C9433020C94330251
:100040000C9433020C9433020C9433020C9433025C
:100050000C9433020C94A5130C9433020C943302C9
:100060000C9433020C9433020C9433020C9433023C
:100070000C9433020C9433020C9433020C9433022C
:100080000C9433020C9433020C9433020C9433021C
:100090000C9433020C9433020C9433020C9433020C
:1000A0000C9433020C9433020C9433024B00520034
:1000B0004E002900500051004F00E1002C0001517A
:1000C0000000000000300130023001000330043035
:1000D00005300100010001000000000001000100E6
:1000E0000100010001000100010001000100010008
:1000F00000000000010001000100010001000100FA
:1001000001000100010001000000000001000100E9
:1001100001000100010001000100010001000100D7
:1001200000000000010001000100010001000100C9
:1001300001000100010001000000000001000100B9
:1001400001000100010001000100010001000100A7
:100150000000000001000100010001000100010099
:100160000100010001000100000000000100010089
:100170000100010001000100010001000100010077
:100180000000000001000100010001000100010069
:100190000100010001000100000000000100010059
:1001A0000100010001000100010001000100010047
:1001B0000000000001000100010001000100010039
:1001C0000100010001000100000000000100010029
:1001D0000100010001000100010001000100010017
:1001E0000000000001000100010001000100010009
:1001F00001000100010001000000000001000100F9
:1002000001000100010001000100010001000100E6
:1002100000000000010001000100010001000100D8
:1002200001000100010001000000000012036B004A
:100230006500790062006F006100720064000000D8
:10024000160371006D006B006200750069006C00A0
:1002500064006500720000000403090409026D00D7
:10026000040100A0FA0904000001030101000921B2
:10027000110100012240000705810308000A09045A
:1002800001000103010200092111010001224D00BA
:100290000705820308000A090402000103000000A8
:1002A0000921110100012236000705830308000A15
:1002B00009040300010300000009211101000122CB
:1002C000390007058403200001120110010000001D
:1002D00008EDFE606001000102000105010906A1B0
:1002E00001050719E029E715002501950875018129
:1002F00002050819012905950575019102950175F9
:100300000391010507190029F71500250195F875D6
:10031000018102C005010980A101850216010026A4
:1003200003001A81002A8300751095018100C00521
:100330000C0901A1018503160100269C021A010087
:100340002A9C02751095018100C005010902A101D6
:100350000901A100050919012905150025019505C7
:10036000750181029501750381010501093009318B
:100370001581257F95027508810609381581257F2D
:10038000950175088106050C0A38021581257F95AF
:100390000175088106C0C005010906A101050719FC
:1003A000E029E71500250195087501810295017581
:1003B0000881010508190129059505750191029526
:1003C00001750391010507190029FF150026FF009B
:1003D000950675088100C00011241FBECFEFDAE03A
:1003E000DEBFCDBF04B603FE27C08091030290910B
:1003F0000402A0910502B09106028730904BA740FD
:10040000B04BD1F410920302109204021092050234
:100410001092060214BE84B7877F84BF0FB6F8948B
:10042000A8958091600088618093600010926000C0
:100430000FBEE0E0F8E3099511E0A0E0B1E0E0ECE8
:10044000FFE302C005900D92AE32B107D9F722E06A
:10045000AEE2B1E001C01D92A330B207E1F70E9405
:1004600018190C94DE1F0C94000090E080E00895B1
:100470000895089581E00895089581E008950C9409
:100480003A020E94B90B2FEF84E39CE02150804098
:100490009040E1F700C000000C94CA13FF920F9344
:1004A0001F93CF93DF938C01FC01C081D181809198
:1004B000530181113FC082818823B9F1CE010E948E
:1004C0001E11F82E682FCE010E94C610BE018F2D7E
:1004D0000E949503EC01B8010E943F02882309F4B1
:1004E0004AC0B801CE010E94A505882309F443C083
:1004F000C531F0E7DF0718F5C23080E7D80708F00C
:100500004BC0C115E0E7DE0789F1C130D047D1F11A
:1005100081E08093300180933101C801DF91CF9158
:100520001F910F91FF900C943D02CE010E94F41098
:10053000F82ECCCFCE010E941E11BE01C9CFCC3304
:1005400080E7D80709F4ACC0CD33D04709F7F801EC
:100550008281882309F4CBC0109231010E946F136D
:1005600090932F0180932E0180E2A7C0F801828131
:1005700081110E94410280E0DF91CF911F910F9184
:10058000FF900895F80182818823A9F38091C30127
:1005900081608093C301EFCFF8018281882309F441
:1005A000BCCF0E94CF12811102C00E94B5120E94DE
:1005B000EC1290E09093F5018093F401FE01E3507A
:1005C000F0478091F4018160E231F105C8F4E55112
:1005D000FD4F0C948E1FFD0209030D03110315033B
:1005E00019031D032103250329032D0331033503BB
:1005F00039033D034103450349038091F4018260BF
:100600008093F4018091F4010E94F0120E94B90BD2
:10061000B2CF8091F4018460F3CF8091F4018860BF
:10062000EFCF8091F4018061EBCF8091F401806283
:10063000E7CF8091F4018064E3CF8091F40180687A
:10064000DFCF8091F4018460EACF8091F4018E7F46
:10065000D7CF8091F4018D7FD3CF8091F4018B7F30
:10066000CFCF8091F401877FCBCF8091F4018F7E33
:10067000C7CF8091F4018F7DC3CF8091F4018F7B30
:10068000BFCF8091F4018F77BBCF8091F4018B7F36
:10069000EACF9091F401892F97FB87F98058B0CF6A
:1006A000F8018281882361F0109230010E946F135B
:1006B00090932F0180932E0182E00E9443095BCF2B
:1006C0008091300181110FC080912E0190912F01F6
:1006D0000E947B13883C910530F486E20E94180842
:1006E00086E20E94F40882E00E944A0944CF809189
:1006F000310181110FC080912E0190912F010E9434
:100700007B13883C910530F487E20E94180887E249
:100710000E94F40880E2E8CF0C94F4050C94F605EE
:100720000C943C020C9490030895E72FF0E093E0C2
:10073000899FE00DF11D1124EE0FFF1FEE0FFF1F2B
:10074000E60FF11DEE0FFF1FE455FF4F85919491C9
:100750000895FC01EE0FFF1FE45DFD4F859194911C
:1007600008950E9495030E942405811520E49207B4
:1007700008F08DC0811540E3940708F0E8C0803E82
:10078000910508F071C0803C910508F0CCC0883A12
:10079000910580F4853A910508F0CAC08130910531
:1007A00009F46EC020F08430910508F069C090E033
:1007B00080E008958D3B9105D0F7883A910509F4C2
:1007C00004C1893A910509F403C18A3A910509F4F3
:1007D00002C18B3A910509F401C18C3A910509F4E3
:1007E00000C18B3B910509F4FFC08C3B910509F4D6
:1007F000FEC08D3A910509F4FDC0803B910509F4D6
:10080000FCC08E3A910509F4FBC08F3A910509F4BA
:10081000FAC0813B910509F4F9C0823B910509F4C6
:10082000F8C0833B910509F4F7C0843B910509F4B6
:10083000F6C0853B910509F4F5C0863B910509F4A6
:10084000F4C0873B910509F4F3C0883B910509F496
:10085000F2C0893B910509F4F1C08A3B910509F486
:10086000F0C080E094E408958F3F910509F048F4CA
:10087000803F910508F067C0883E910508F097CF4A
:100880000895811520E2920708F05FC00895811550
:1008900043E5940760F5811522E5920708F062C0F0
:1008A000811541E5940708F058C0811520E59207AD
:1008B00008F450C09C0154E0369527955A95E1F70D
:1008C000922F9370482F437021E030E002C0220F36
:1008D000331F4A95E2F73C68392B869586958370DD
:1008E00040E2849FC0011124822B932B089581152F
:1008F00045E5940750F4811524E5920708F446C0B5
:10090000982F8827846F906A0895811546E594078B
:1009100008F450C09C0130569F702115304108F0FA
:1009200046CF90620895805C91090E94A9030895C2
:10093000853A910509F443C0863A910509F042C011
:1009400082E890E40895906508959F70EECF99270E
:10095000906C08959F70906A0895982F8827816FF2
:10096000906A0895AC014370552721E030E002C041
:10097000220F331F4A95E2F78695869540E2849FC1
:10098000C0011124822B932B9C680895AC01437005
:10099000552721E030E002C0220F331F4A95E2F7CD
:1009A0008695869540E2849FC0011124822B932B6B
:1009B0009A680895982F882788279F71B2CF81E879
:1009C00090E4089583E890E4089582EE94E4089515
:1009D00089EE94E408958AEE94E4089585EB94E416
:1009E000089586EB94E4089583EB94E4089584EBF2
:1009F00094E4089587EB94E408958CEC94E40895CE
:100A00008DEC94E4089583E895E408958AE895E4EC
:100A1000089582E995E4089584E995E4089581E2D2
:100A200096E4089583E296E4089584E296E40895B6
:100A300085E296E4089586E296E4089587E296E4D6
:100A400008958AE296E41CCF8238910549F1B0F40A
:100A50008133910509F45CC048F48932910509F4A9
:100A600052C08A32910509F458C008958533910522
:100A700009F444C08933910599F00895833E9105A6
:100A800031F138F4803E910591F0823E9105B1F04C
:100A90000895863E910511F1873E910541F1089533
:100AA0002091F4012370C9F080EE90E00895209128
:100AB000F40120FF12C089E390E008952091F40131
:100AC00022FF0BC024FF2EC090E080E0089520910B
:100AD000F40122FD2AC024FDF7CF08952091F401EE
:100AE00023FFFBCF24FDF0CF87EE90E00895209107
:100AF000F40123FFF0CF86EE90E008952091F401F9
:100B000025FD16C008952091F40125FD14C0089517
:100B10002091F40126FD12C008952091F40126FDD4
:100B200010C0089583EE90E0089582EE90E008955D
:100B300089E290E0089585E390E008958AE290E0EC
:100B4000089581E390E0C9CF08950F931F93CF9349
:100B50008C01FB018281811106C0C1E08C2FCF91F5
:100B60001F910F910895C0913F01C11125C005311A
:100B7000104799F70E94A40581E080933F010E94ED
:100B80006F1390933E0180933D01109232011092B9
:100B900034011092330110923601109235011092F7
:100BA00038011092370110923A01109239011092D7
:100BB0003C0110923B01D2CF80913D0190913E01CA
:100BC0000E947B13883C910540F680913201E82F0A
:100BD000F0E0EE0FFF1FED5CFE4F118300838F5F8F
:100BE00080933201C0E0BACF0C9438020C943902E1
:100BF000CF93DF9385B7806885BF85B7806885BF51
:100C0000A7E1B1E04AE151E0C1E0D0E08D91E82FE9
:100C1000E295EF70F0E061A18F709E0101C0220F9C
:100C20008A95EAF7922F9095962391A382A1822B21
:100C300082A34A175B0751F7A3E1B1E047E151E016
:100C4000C1E0D0E08D91E82FE295EF70F0E061A176
:100C50008F709E0101C0220F8A95EAF7922F90951E
:100C6000962391A382A1822B82A34A175B0751F797
:100C700010924301109240011092440110924101E0
:100C80001092450110924201DF91CF910C948C0398
:100C90006F927F929F92AF92BF92CF92DF92EF922C
:100CA000FF920F931F93CF93DF93C0E4D1E007E14E
:100CB00011E0EE24E394F12CDD24D39478811882A2
:100CC000D8018D918D01E82FE295EF70F0E091A1B0
:100CD0008F70A70101C0440F8A95EAF7892F842BF2
:100CE00081A382A1942E9094892182A3B0EABA951F
:100CF000F1F733E1632E31E0732E90E080E0D30111
:100D00003D913D01A32EA2942FE0A222B12CD5014A
:100D10009096CC9068813F70D70102C0AA0FBB1F8C
:100D20003A95E2F79D012C2109F04EC02E2D082E98
:100D300001C0220F0A94EAF7262B288301968430FB
:100D40009105E9F681A1892181A382A1842B82A347
:100D50008881781741F0D09246010E946F139093DA
:100D60004801809347012196B1E00A311B0709F041
:100D7000A5CF809146018823B1F0809147019091E1
:100D800048010E947B13069770F080914001809388
:100D900043018091410180934401809142018093FD
:100DA0004501109246010E948E0381E0DF91CF91B0
:100DB0001F910F91FF90EF90DF90CF90BF90AF9079
:100DC0009F907F906F90089520E0B6CFE82FF0E0DD
:100DD000ED5BFE4F80810895089590934E018093BE
:100DE0004D010895E0914D01F0914E01309721F0B1
:100DF0000190F081E02D099480E00895E0914D018B
:100E0000F0914E01309721F00280F381E02D09949A
:100E10000895E0914D01F0914E01309721F004804A
:100E2000F581E02D0994089520914B0130914C01FA
:100E30002817390771F090934C0180934B01E09192
:100E40004D01F0914E01309721F00680F781E02DA1
:100E5000099408952091490130914A0128173907D2
:100E600071F090934A0180934901E0914D01F09116
:100E70004E01309721F00084F185E02D099408950A
:100E800008950C9440070E9466130E94F8050C9484
:100E90002F14BF92CF92DF92EF92FF920F931F9386
:100EA000CF93DF93CDB7DEB72A970FB6F894DEBFA6
:100EB0000FBECDBF0E94480680E5C82E81E0D82E27
:100EC00010E000E0B02E802F0E94E606E82EF6012A
:100ED000F1906F01F81609F45AC08091C30181FDA9
:100EE0000E94EC0690E080E0FE242F2D30E0482F99
:100EF000B901082E02C0759567950A94E2F760FF64
:100F000041C08E83BF8281E090E06C0102C0CC0CB6
:100F1000DD1C4A95E2F72E2D30E02C213D21232BBC
:100F200009F480E088870E946F138160782F9A8788
:100F300089874E815F8168858A850E94EE07F80166
:100F4000E05BFE4F80818C2580830E94B2160E9458
:100F5000F20690914F01891789F10E94F206809361
:100F60004F012A960FB6F894DEBF0FBECDBFDF91BA
:100F7000CF911F910F91FF90EF90DF90CF90BF9096
:100F80000C94920301968430910509F0B0CF0F5F65
:100F90001F4F0330110509F095CF8FEF89838A83A6
:100FA0001B820E946F138160782F9D838C834981FF
:100FB0005A816B818D810E94EE07C7CF2A960FB6AA
:100FC000F894DEBF0FBECDBFDF91CF911F910F917F
:100FD000FF90EF90DF90CF90BF900895CF93DF9375
:100FE000CDB7DEB72B970FB6F894DEBF0FBECDBFDF
:100FF0004F83588769877A878B871E821D8285E099
:10100000FE013796DE01119601900D928A95E1F767
:1010100049815A816B817C818D819E812B960FB68F
:10102000F894DEBF0FBECDBFDF91CF910C946B0E55
:10103000882309F4D8C0823871F40E94F20681FD39
:10104000D2C089E30E94BE110E94861289E30E94E9
:10105000FB110C948612833859F40E94F20680FD2D
:10106000C2C083E50E94BE110E94861283E5EFCFC5
:10107000843859F40E94F20682FDB5C087E40E94CC
:10108000BE110E94861287E4E2CF9CEF980F913A3E
:1010900018F40E94BE11DDCF90E2980F983050F402
:1010A000877091E001C0990F8A95EAF7892F0E9415
:1010B0003D12CFCF9BE5980F933070F4853A31F015
:1010C000863A39F083E890E00C94140781E890E0C8
:1010D000FBCF82E890E0F8CF98E5980F953108F0C3
:1010E00082C0883A09F440C0893A09F440C08A3A7B
:1010F00009F440C08B3A09F440C08C3A09F440C06E
:101100008B3B09F440C08C3B09F440C08D3A09F494
:1011100040C0803B09F440C08E3A09F440C08F3A89
:1011200009F440C0813B09F440C0823B09F440C04F
:10113000833B09F440C0843B09F440C0853B09F47B
:1011400040C0863B09F440C0873B09F440C0883B5F
:1011500009F440C0893B09F440C08A3B09F440C00F
:1011600090E080E00C942A0782EE90E0FBCF89EEBD
:1011700090E0F8CF8AEE90E0F5CF85EB90E0F2CFEB
:1011800086EB90E0EFCF83EB90E0ECCF84EB90E048
:10119000E9CF87EB90E0E6CF8CEC90E0E3CF8DECED
:1011A00090E0E0CF83E891E0DDCF8AE891E0DACF0C
:1011B00082E991E0D7CF84E991E0D4CF81E292E057
:1011C000D1CF83E292E0CECF84E292E0CBCF85E232
:1011D00092E0C8CF86E292E0C5CF87E292E0C2CF2C
:1011E0008AE292E0BFCF0895882309F44BC0823889
:1011F00071F40E94F20681FF45C089E30E94BE118E
:101200000E94861289E30E94FB110C948612833897
:1012100059F40E94F20680FF35C083E50E94BE119A
:101220000E94861283E5EFCF843859F40E94F206BB
:1012300082FF28C087E40E94BE110E94861287E4C4
:10124000E2CF9CEF980F913AF0F290E2980F98302D
:1012500050F4877091E001C0990F8A95EAF7892FC1
:101260000E944312D2CF9BE5980F933020F490E078
:1012700080E00C941407885A853120F490E080E0D7
:101280000C942A070895882321F00E943D120C94A3
:1012900086120895882321F00E9443120C9486122E
:1012A00008958F929F92AF92BF92DF92EF92FF923A
:1012B0000F931F93CF93DF937C01D62FC72FFC0191
:1012C000058102950F70128111110E945C120E941B
:1012D000B711D82E882371F0112321F180E28D0FF0
:1012E000883000F182E00E94A1110E94B71191E0C4
:1012F000D82ED926EC2FE295EF70F0E0EE57F64F9E
:101300000C948E1F94099409E409E409260A420A00
:10131000C109C1094D0AC109E50AE50A580BC1090D
:10132000C109610BD12CE6CF0C2F0F70C07F11F0DB
:101330000295007F1123A9F0002359F080E28D0F60
:10134000883010F0D11109C0802F0E943D120E94F8
:1013500086128D2F0E94180814C0802F0E944E12F2
:10136000F6CF8D2F0E94F408002359F080E28D0FF4
:10137000883010F0D11124C0802F0E9443120E94A7
:101380008612DD2009F4A4C10E94941180FDA0C141
:10139000F70112820E948E110E940A10C7010E945A
:1013A000740B0E948E11DF91CF911F910F91FF90CE
:1013B000EF90DF90BF90AF909F908F900C942B1088
:1013C000802F0E945412DBCFFC2FFF70BF2EC07FF6
:1013D000C03219F0B29480EFB822DD2369F0D13029
:1013E00029F1112369F1002359F0F701858180FF6C
:1013F000B0CF8F70858304C0112361F0011104C048
:101400008B2D0E944309BDCF8B2D0130D1F70E9457
:101410007012B7CF011106C00E9473128B2D0E946B
:101420004A09AFCF013009F4ACCFF6CF112321F038
:10143000063008F0A6CFE4CF053008F0A2CFEECFFB
:10144000002361F38D2F0E94F4089BCF8C2F86958B
:101450008695837069F0813009F093CF8D2F9C2F92
:101460009370111102C090E080E00E942A0789CF9A
:101470008D2F9C2F9370111102C090E080E00E948C
:1014800014077FCF8D2F112329F00E94BB150E94D6
:10149000A71677CF0E942316FACF8C2F837009F0FE
:1014A00047C011116ECF2D2F229526952770220F40
:1014B000220F6D2F6F70862E912CB12CA12C022E35
:1014C00004C0880C991CAA1CBB1C0A94D2F760E0CB
:1014D00070E0CB01D4FF0FC06FE070E080E090E0DF
:1014E00004C0660F771F881F991F2A95D2F7609551
:1014F000709580959095C695C695C370C23051F091
:1015000080F4682979298A299B29C13071F00E94C9
:10151000B30F37CF682979298A299B290E94CF0FD9
:1015200030CF0E94B30FC501B4010E94970F29CF9D
:101530008695112311F08C2F8170882309F421CF17
:101540002D2F229526952770220F220F6D2F6F7059
:10155000862E912CB12CA12C022E04C0880C991C33
:10156000AA1CBB1C0A94D2F760E070E0CB01D4FF48
:101570000FC06FE070E080E090E004C0660F771F5E
:10158000881F991F2A95D2F7609570958095909540
:10159000C695C695C370C23051F080F46829792988
:1015A0008A299B29C13071F00E948D10EACE6829EA
:1015B00079298A299B290E94A910E3CE0E948D10C7
:1015C000C501B4010E947110DCCEE0E2ED0FE531FF
:1015D00008F062C0F0E0E151F54F0C948E1F040B4F
:1015E000040B040B040B040B040B040B040B040B83
:1015F000040B040B040B040B040B040B040B110B66
:101600001F0B260B2D0B370BDF708C2F8F711123C7
:1016100021F00E940A108D2FF4CE0E942B108D2FE6
:10162000FECE112341F0053008F0ABCE8C2F8F7128
:101630000E945010A6CE063008F0A3CEF7CF8C2F14
:101640008F71112339F00E940A109BCE8C2F8F715D
:101650001123C9F30E942B1094CE112329F08C2F53
:101660008F710E94F50F8DCE0E94EB0F8ACE112351
:1016700049F0CF718C2F0E940A1063E08C2F0E94DA
:1016800098117FCE81E00E94A111023008F479CE3A
:1016900082E00E94A11175CE112329F0011159CECB
:1016A0008C2F8F71D0CF0111CDCE8C2F8F71D2CFD7
:1016B0004C2F4F706D2FC7010E9435020E94140FEE
:1016C00060CE4C2F4F706D2FC7010E94940359CEEE
:1016D000DF91CF911F910F91FF90EF90DF90BF901E
:1016E000AF909F908F9008950F931F93CF93DF93A8
:1016F000EC01988189812B813C81232B39F08F3F2C
:1017000019F481E09F3F19F080E001C081E080FD85
:1017100017C0CE010E944E02882391F06881798122
:101720008A810E946A118C010E94C5100E948C0F50
:10173000B801CE01DF91CF911F910F910C94510907
:10174000DF91CF911F910F9108950E945C120E942A
:101750006D120E942F120E9486120E9454170E943E
:10176000A71690E080E00E94140790E080E00C94BF
:101770002A070E944B120C94A50B0E946011E92FBE
:10178000E295EF70E250EE30E0F4F0E0E653F44F13
:101790000C948E1FD80BD80BE10BE10BE30BE10B84
:1017A000E10BE10BD80BD80BE80BE10BE10BE80BDD
:1017B000803F19F020F4803E20F481E00895843FBA
:1017C000E1F380E00895803EC0F3813FD1F7F5CF8B
:1017D00093FB882780F90895CF93DF9300D000D042
:1017E0001F92CDB7DEB70F900F900F900F900F9014
:1017F000DF91CF910895CF93DF9300D000D000D038
:10180000CDB7DEB726960FB6F894DEBF0FBECDBFBC
:10181000DF91CF9108951F93CF93DF93C09154012F
:1018200016E0809155018C1304C0DF91CF911F9178
:101830000895D0E01C9FF0011D9FF00D1124EA5A7D
:10184000FE4F4081518162817381848195810E9424
:10185000FB0B2196C770E5CF40918601509187011F
:10186000609188017091890180918A0190918B012A
:101870000C94FB0B1F93CF93DF9380918B01807FA0
:10188000D1F4809188018823B1F080915401D091E6
:101890005501B0918601C091870140918901509115
:1018A0008A01A1E0BF3F09F0A0E0BA016095709500
:1018B00016E0D81304C0DF91CF911F91089521E065
:1018C0004115510521F02A2FCF3F09F020E090E08B
:1018D00020FD38C0189FF001199FF00D1124EA5A1D
:1018E000FE4F21812C132EC020812B132BC022816F
:1018F000211128C0238134812417350700F1241BCE
:10190000350B283C3105F0F420918B012F702061BC
:1019100020938B0126E0289FF001299FF00D1124D0
:10192000E55AFE4F80818F708061808386E891E068
:101930000E94740BDF91CF911F910C940B0C260F1A
:10194000371FDFCF01968770B4CFAF92BF92CF928F
:10195000DF92EF92FF920F931F93CF93DF93CDB758
:10196000DEB761970FB6F894DEBF0FBECDBF8C0116
:1019700085E0F801DE011D9601900D928A95E1F750
:10198000D8014C9111965C9111971296EC90309180
:101990008601609187018091890190918A0121E0FF
:1019A000009731F06F3F19F421E03F3F09F020E04C
:1019B000B22FB170BB2E20FD80C1F801C380D4804E
:1019C000A0908801AA2009F427C1C816D906D0F131
:1019D000D601A81BB90BCD01FF24F394883C9105D7
:1019E00008F0F12C80918B01982F907FFF2009F453
:1019F000CAC0911187C0FE2C651329C0341327C0BB
:101A0000E11025C08F70806180938B010E942C0CA7
:101A100086E891E00E94740B80918B01F801858328
:101A20008F2D61960FB6F894DEBF0FBECDBFDF914C
:101A3000CF911F910F91FF90EF90DF90CF90BF90CB
:101A4000AF900895809590958C0D9D1DC5CF81E038
:101A5000CD2831F05F3F19F481E04F3F09F080E07D
:101A600080FD24C081E08E25F82FF170DF2E80FFED
:101A70003FC0809154012091550136E0821318C077
:101A80004D875E878D859E850E946011292F229546
:101A90002F70223008F1243030F59F7009F1D80101
:101AA00015969C91907FE1F4FB2CBACF80E0DCCFBF
:101AB00090E0389FF001399FF00D1124EA5AFE4F53
:101AC0006181561306C06081461303C062816E11A6
:101AD0000FC001968770D2CF9F7011F0882321F339
:101AE000805E883008F3C8010E94740BBD2CDCCFE7
:101AF000EE2009F495CF80918B01816080938B015A
:101B0000F12C8ECF651312C0341310C0E1100EC03B
:101B1000F8018583C8010E94740B86E0F801A6E8ED
:101B2000B1E001900D928A95E1F741C04D875E8743
:101B30008D859E850E94BD0B882309F4C8C0EE20C8
:101B400009F4C5C080918B01803270F0209186012C
:101B50003091870138872F831986DB86CA868C8768
:101B6000CE0107960E94740B86E0F801A6E8B1E06A
:101B700001900D928A95E1F70E943A0C0E942C0C7C
:101B8000FF24F3944DCF911115C07C2DD98AC88ABA
:101B90006E2D89890E94EC0B86E891E00E94740BFF
:101BA00086E0E6E8F1E0DF011D928A95E9F70E9400
:101BB0002C0C36CF651312C0341310C0E1100EC0C8
:101BC000F8018583C8010E94740BE6E8F1E086E025
:101BD000DF011D928A95E9F7FA2C22CF4D875E87A7
:101BE0008D859E850E94BD0B882309F470C0EE2070
:101BF00009F46DC080918B01803208F4B5CF20913B
:101C00008601309187013A8329831B82DD82CC8251
:101C10008E83CE010196A6CFC816D90638F1F601FB
:101C2000E81BF90BCF01F12C883C910508F03DC071
:101C3000FE2CEE2009F44BC0651326C0341324C0DB
:101C400080918B0180FD17C0982F907FA1F0D80163
:101C500015968C931597903F09F45CCF982F907F41
:101C6000905F8F70892B15968C9354CF80959095AB
:101C70008C0D9D1DD8CF86E0F801A6E8B1E001905B
:101C80000D928A95E1F7CCCE4D875E878D859E8536
:101C90000E94BD0B811168CF80918B018160809380
:101CA0008B01C8010E94740BBBCE7C2DD98AC88AD7
:101CB0006E2D89890E94EC0B73CFEE2041F04D8789
:101CC0005E878D859E850E94BD0B81114DCFC80119
:101CD0000E94740B55CF1F93CF93DF93CDB7DEB720
:101CE0002C970FB6F894DEBF0FBECDBF4F83588739
:101CF00069877A878B879C87CE0107960E94A50CFF
:101D0000882309F442C09F8188852A853B85232B3F
:101D100039F08F3F19F481E09F3F19F080E001C056
:101D200081E080FD08C04F81588569857A858B8563
:101D30009C850E94FB0B16E0809154019091550107
:101D4000891709F467C0819FC00111248A5A9E4FE8
:101D50000E94A50C882309F45DC0E09154011E9FE8
:101D6000F0011124EA5AFE4F408151816281738152
:101D7000848195810E94FB0B8091540190E0019633
:101D80008770992780935401D7CF86E0FE0137965C
:101D9000DE01119601900D928A95E1F79F81888569
:101DA0002A853B85232B39F08F3F19F481E09F3F33
:101DB00019F080E001C081E080FDBDCF2091550188
:101DC00030E0C90101968770992740915401481766
:101DD000190699F096E0929FD001939FB00D1124BF
:101DE000AA5ABE4FFE01319601900D929A95E1F7E5
:101DF000809355010E940B0C9ECF0E94B90B10924C
:101E000055011092540186E0E6E8F1E0DF011D92F1
:101E10008A95E9F72C960FB6F894DEBF0FBECDBFBA
:101E2000DF91CF911F910895EF92FF920F931F932F
:101E3000CF93DF938C01892B81F0F12CEE24E39476
:101E4000E8012196F8018491843770F4843008F019
:101E50005FC08130B1F08230A1F1DF91CF911F914D
:101E60000F91FF90EF900895853709F44CC008F466
:101E70003DC09CE7980F903780F78F770E94F40859
:101E800049C00E5F1F4FFE01849190E2980F983079
:101E900060F48770FE2D01C0FF0F8A95EAF78F2F3F
:101EA0000E945F120E94861202C00E9418088F2DA5
:101EB000815030F2EFE9FFE03197F1F700C0000008
:101EC000F7CF0E5F1F4FFE01849190E2980F98307C
:101ED00050F48770FE2D01C0FF0F8A95EAF78F2F0F
:101EE0000E946512DFCF0E94F408E1CF0E5F1F4F02
:101EF000FE01C491C150D8F28FE99FE00197F1F73C
:101F000000C00000F7CF0E5F1F4FFE01F490CFCF4F
:101F10000E9418088E01CBCF089560939A017093A8
:101F20009B0180939C0190939D010C94A50B0F93B2
:101F30001F9300919A0110919B0120919C01309177
:101F40009D01DC01CB01802B912BA22BB32B809325
:101F50009A0190939B01A0939C01B0939D011F91C6
:101F60000F910C94A50B0F931F9300919A01109160
:101F70009B0120919C0130919D01DC01CB018023CC
:101F80009123A223B32380939A0190939B01A09362
:101F90009C01B0939D011F910F910C94A50B0F9381
:101FA0001F9300919A0110919B0120919C01309107
:101FB0009D01DC01CB0180279127A227B3278093C5
:101FC0009A0190939B01A0939C01B0939D011F9156
:101FD0000F910C94A50B10929601109297011092FC
:101FE0009801109299010C94A50B41E050E060E03B
:101FF00070E004C0440F551F661F771F8A95D2F703
:1020000040939601509397016093980170939901C2
:102010000C94A50B41E050E060E070E004C0440F78
:10202000551F661F771F8A95D2F780919601909170
:102030009701A0919801B0919901842B952BA62B23
:10204000B72B8093960190939701A0939801B0933A
:1020500099010C94A50B41E050E060E070E004C0F1
:10206000440F551F661F771F8A95D2F740955095EC
:10207000609570958091960190919701A09198013B
:10208000B091990184239523A623B72380939601C9
:1020900090939701A0939801B09399010C94A50B8C
:1020A00041E050E060E070E004C0440F551F661F3F
:1020B000771F8A95D2F78091960190919701A09110
:1020C0009801B091990184279527A627B727809377
:1020D000960190939701A0939801B09399010C9465
:1020E000A50B0F931F9300919601109197012091DA
:1020F000980130919901DC01CB01802B912BA22B0F
:10210000B32B8093960190939701A0939801B0937D
:1021100099011F910F910C94A50B0F931F930091A0
:102120009601109197012091980130919901DC015D
:10213000CB0180239123A223B32380939601909314
:102140009701A0939801B09399011F910F910C945E
:10215000A50B0F931F930091960110919701209169
:10216000980130919901DC01CB0180279127A227AA
:10217000B3278093960190939701A0939801B09311
:1021800099011F910F910C94A50B0895990F990F28
:10219000890F982F977071E001C0770F9A95EAF731
:1021A00086958695869525E0829FC001112450E092
:1021B00040E0A62FB0E0FC01E40FF51FE457FE4F0E
:1021C00060819D01042E02C0369527950A94E2F79E
:1021D0002170219526272723262720834F5F5F4FD5
:1021E0004530510541F70895990F990F890F982FA0
:1021F000977086958695869525E0829FA00111248B
:1022000070E060E080E0FA01E60FF71FE457FE4F50
:10221000208130E0092E02C0369527950A94E2F716
:1022200021703327062E01C0220F0A94EAF7822B71
:102230006F5F7F4F6530710531F70895BF92CF9280
:10224000DF92EF92FF920F931F93CF93DF938C0156
:10225000C0909601D0909701E0909801F09099017C
:1022600080919A0190919B01A0919C01B0919D0158
:10227000C82AD92AEA2AFB2ACFE1D0E0BC2ED7010E
:10228000C6010C2E04C0B695A795979587950A941C
:10229000D2F780FD0EC0219788F7B12C8B2DDF91EE
:1022A000CF911F910F91FF90EF90DF90CF90BF9053
:1022B0000895B8018C2F0E94B103019761F3EECF0E
:1022C000CF93DF93EC010E941E11BE01DF91CF91ED
:1022D0000C94B1031F93CF93DF93EB0190915301C3
:1022E000992331F0CB01DF91CF911F910C946011B4
:1022F000882379F0CB010E941E11182F682FCE0180
:102300000E94C610BE01812FDF91CF911F910C94C6
:10231000B103CB010E94F410182FF4CF80919E01DD
:10232000859585958595089580919E01877008957E
:1023300098E0899F90011124622B60939E010C9478
:102340000A1090919E018095892380939E01282FE9
:10235000277061F4282F082E000C330B92171306F8
:1023600029F08595859585950C942B10089590916D
:102370009E01977081E009F480E008959091120128
:102380009923E1F09091F40197FF18C0E82FE695AA
:10239000E695E695EF3139F1209100013091010188
:1023A000E20FF32FF11D877021E030E001C0220F12
:1023B0008A95EAF78181822B81830895209100011B
:1023C00030910101F90132969FEF40E0519185175C
:1023D00051F09F3F19F4511101C0942F4F5F4E31BE
:1023E000A9F79F3F09F40895290F311D97FD3A95EC
:1023F000F90182830895909112019923F1F090914F
:10240000F40197FF1AC0E82FE695E695E695EF31BF
:1024100029F12091000130910101E20FF32FF11D0C
:10242000282F277081E090E001C0880F2A95EAF7F5
:1024300080959181892381830895209100013091B5
:102440000101F9013296205E3F4F9191891303C03B
:10245000DF0111971C92E217F307B9F7089581E0A5
:1024600090E0E0910001F0910101E80FF91F108266
:10247000019680329105A9F708959091C201892BA8
:102480008093C2010895982F90958091C20189236D
:102490008093C20108951092C20108959091C101E4
:1024A000892B8093C1010895982F90958091C10147
:1024B00089238093C10108951092C10108959091DC
:1024C000C001892B8093C0010895982F9095809129
:1024D000C00189238093C00108951092C00108951E
:1024E00080939F01089510929F010895209100010B
:1024F00030910101F9013196205E3F4F80E09191CA
:1025000091118F5FE217F307D1F70895E091000171
:10251000F09101018091C2018083E0910001F0916E
:10252000010180819091C101892B8083E09100019C
:10253000F091010180819091C001892B808390915D
:102540009F01992361F0E0910001F09101018081E8
:10255000892B80830E947612811110929F018091B5
:102560000001909101010C94FE066DEE7EEF90E06B
:1025700080E00E94C81F60E082E090E00E94B61FE9
:1025800060E083E090E00E94B61F60E084E090E0AD
:102590000E94B61F60E085E090E00C94B61F90E0CA
:1025A00080E00E94B01F21E08D3E9E4F09F020E0A8
:1025B000822F089582E090E00C94A81F682F82E09B
:1025C00090E00C94B61F83E090E00C94A81F682F55
:1025D00083E090E00C94B61F84E090E00C94A81F78
:1025E000682F84E090E00C94B61F8091FA0184304B
:1025F00039F11092C40188E190E020E40FB6F8941C
:10260000A895809360000FBE2093600080E00E9438
:10261000920383B7817F846083BF83B7816083BF68
:102620007894889583B78E7F83BF0FB6F894A8956A
:1026300080916000886180936000109260000FBEFE
:10264000089508950895CF930E9421130E9448068B
:102650000E942213C0E08C2F0E94E606811105C063
:10266000CF5FC330C1F7CF91089581E0FCCF0E94C6
:10267000B90B0E94F2060C9492031F920F920FB6B0
:102680000F9211248F939F93AF93BF938091C401B6
:10269000811113C08091F0019091F101A091F2019C
:1026A000B091F3014196A11DB11D8093F00190936B
:1026B000F101A093F201B093F301BF91AF919F910B
:1026C0008F910F900FBE0F901F90189582E084BDE0
:1026D00093E095BD9AEF97BD80936E0008952FB754
:1026E000F8948091F0019091F101A091F201B091E4
:1026F000F3012FBF0895CF92DF92EF92FF920F93D5
:102700001F932FB7F8944091F0015091F10160911F
:10271000F2017091F3012FBF6A017B01EE24FF24C7
:102720008C0130E020E0C016D106E206F30650F03E
:10273000481B590BCA011F910F91FF90EF90DF903A
:10274000CF90089541505109F3CF1F920F920FB6C9
:102750000F9211248F939F93AF93BF938091F001B9
:102760009091F101A091F201B091F3010196A11DA8
:10277000B11D8093F0019093F101A093F201B09309
:10278000F301BF91AF919F918F910F900FBE0F906A
:102790001F9018950E944E1BF8942FEF87EA91E640
:1027A000215080409040E1F700C0000087E090EBAE
:1027B000DC018093030290930402A0930502B0937E
:1027C000060288E19CE00FB6F894A895809360001B
:1027D0000FBE90936000FFCFCF92DF92EF92FF92F7
:1027E0000F931F93CF93C0E0E82EF12C8C2F0E9403
:1027F000E60610E000E0C82ED12CC601002E02C073
:10280000959587950A94E2F780FD11C00F5F1F4FE1
:102810000430110591F7CF5FC33041F780E0CF91CD
:102820001F910F91FF90EF90DF90CF900895602F50
:102830007C2F80E00E949503E816F90639F781E0C5
:10284000EECFCF93C82F8CE20E94EC13882321F0A7
:102850008C2FCF910C94EC1380E0CF910895CF93FF
:102860000E94CF12811102C00E94B512C5E608C0B5
:102870000E9448068FE39CE90197F1F700C0000031
:10288000C150B1F789E20E9421148111EFC08AE2A0
:102890000E94211481110E94B51285E00E9421142A
:1028A00081110E94CA130E94DA128093C30187E04B
:1028B0000E942114882371F08BE10E942114882347
:1028C00009F4B1C09091C301892F8D7F91FF82607F
:1028D0008093C3018091C3010E94DE120E94EC121A
:1028E00090E09093F5018093F40180EE0E94211412
:1028F000882341F09091F401892F8E7F90FF8160B1
:102900008093F40189E30E942114882341F090917F
:10291000F401892F8D7F91FF82608093F40182EE14
:102920000E942114882341F09091F401892F8B7F1C
:1029300092FF84608093F40186EE0E942114882324
:1029400041F09091F401892F877F93FF88608093F5
:10295000F40183EE0E942114882341F09091F40148
:10296000892F8F7E94FF80618093F40185E30E941C
:102970002114882341F09091F401892F8F7D95FFD8
:1029800080628093F40181E30E942114882341F046
:102990009091F401892F8F7B96FF80648093F401DE
:1029A00081E10E942114882341F09091F401892F44
:1029B00097FB87F980588093F4018091F4010E947D
:1029C000F01287E20E942114C82F8EE10E94211488
:1029D0008111C2608FE10E9421148111C46080E2E4
:1029E0000E9421148111C86081E20E94211481118A
:1029F000C06182E20E9421148111C06283E20E94C0
:102A000021148111C06484E20E942114882341F1C1
:102A1000C0688C2F0E94E7126C2F70E090E080E07D
:102A2000CF910C948D0F8EE00E942114882339F0F1
:102A30009091C301892F8B7F92FF846049CF80E101
:102A40000E9421149091C301882329F0892F877F48
:102A500093FF88603DCF892F8E7F90FF816038CFB4
:102A6000C111D7CF0E94E312682FD7CFCF9108951D
:102A70008091C70180FF12C06091050185E0689FC9
:102A8000B001112475956795759567956038710546
:102A9000A8F561157105A1F1862F089581FF09C080
:102AA0006091050185E0689FB001112475956795D7
:102AB000EDCF82FF07C06091050185E0689FB001FE
:102AC0001124E4CF2091C8012223A9F090910401A0
:102AD0006091050185E0689FB00111242917B0F6C7
:102AE000269FA001279F500D1124692F70E0CA0175
:102AF0000E947A1FCBCF65E070E0CECF8FE70895BC
:102B000081E008958091C70180FF0CC060910301AE
:102B100070E075956795759567956115710549F133
:102B2000862F089581FF06C06091030170E07595BE
:102B30006795F3CF6091030182FD0BC09091C801AE
:102B40009923A1F06091020180910301961738F05A
:102B5000682F70E06038710500F38FE70895899F52
:102B6000C001112470E00E947A1FF4CF61E070E090
:102B7000D7CF81E00895803F31F40E9438158195C8
:102B80008093CB010895813F19F40E943815F8CF46
:102B9000823F31F40E94381581958093CA010895CF
:102BA000833F19F40E943815F8CF893F29F40E9419
:102BB00082158093CC0108958A3F21F40E948215EA
:102BC0008195F7CF8B3F31F40E94821581958093D8
:102BD000CD0108958C3F19F40E948215F8CF843FEF
:102BE00031F48091C90181608093C9010895853FC6
:102BF00021F48091C9018260F7CF863F21F4809152
:102C0000C9018460F1CF873F21F48091C9018860B8
:102C1000EBCF883F21F48091C9018061E5CF8D3FE2
:102C200031F48091C70181608093C70108958E3F80
:102C300021F48091C7018260F7CF8F3FB9F780916F
:102C4000C7018460F1CF803FC1F48091CB0187FD43
:102C50001092CB018091CA0181110EC08091CB01ED
:102C600081110AC08091CC01811106C08091CD01F3
:102C7000811102C01092C8010895813F29F480910A
:102C8000CB0118162CF3E6CF9091CA01823F29F4AC
:102C900097FFE0CF1092CA01DDCF833F19F41916D8
:102CA000CCF3D8CF893F39F48091CC01181694F633
:102CB0001092CC01CFCF8A3F29F48091CC0187FFBD
:102CC000C9CFF6CF8B3F39F48091CD0187FFC2CFBA
:102CD0001092CD01BFCF8C3F29F48091CD01181601
:102CE000BCF3B8CF843F31F48091C9018E7F8093CB
:102CF000C901B0CF853F21F48091C9018D7FF7CF05
:102D0000863F21F48091C9018B7FF1CF873F21F469
:102D10008091C901877FEBCF883F21F48091C90161
:102D20008F7EE5CF8D3F31F48091C7018E7F8093F8
:102D3000C70190CF8E3F21F48091C7018D7FF7CFDF
:102D40008F3F09F087CF8091C7018B7FF0CF89EC4F
:102D500091E00E9409070E946F139093C60180932F
:102D6000C50108951F93CF93DF938091C501909182
:102D7000C6010E947B13AC019091C801209106010D
:102D800030E0911106C0209107018AE0289F900150
:102D900011244217530780F08091CA01C091CB01E2
:102DA0001091CC01D091CD0181110AC0C11178C020
:102DB000111176C0D11174C0DF91CF911F91089588
:102DC0009F3F19F09F5F9093C801181624F40E944A
:102DD00038158093CA018091CA0187FF05C00E94FF
:102DE000381581958093CA011C1624F40E94381569
:102DF0008093CB018091CB0187FF05C00E943815DD
:102E000081958093CB016091CA01662331F1C09115
:102E1000CB01CC2311F1062E000C770B880B990BFC
:102E20000E94811E23E333E343E35FE30E94E51E38
:102E30000E94491E6093CA016C2FCC0F770B880B40
:102E4000990B0E94811E23E333E343E35FE30E9477
:102E5000E51E0E94491E6093CB01111624F40E94C6
:102E600082158093CC018091CC0187FF05C00E9420
:102E7000821581958093CC011D1624F40E94821541
:102E80008093CD018091CD0187FF05C00E948215FE
:102E900081958093CD01DF91CF911F910C94A7165E
:102EA0009F3F09F08FCFA0CF85E0E9ECF1E0DF0193
:102EB0001D928A95E9F71092C8011092C7010895F2
:102EC0008091EE010895CF93DF9300D01F92CDB78C
:102ED000DEB79C018091FA01843019F593E0998363
:102EE0003B832A839093E9008FEF9091E800815013
:102EF00095FD06C095ED9A95F1F700008111F5CF8B
:102F00008091E80085FF0DC050E040E063E070E094
:102F1000CE0101960E94BE198091E8008E778093C1
:102F2000E8000F900F900F90DF91CF910895CF930D
:102F3000DF9300D01F92CDB7DEB72091FA01243085
:102F400031F522E02983805891099B838A8383E0AD
:102F50008093E9008FEF9091E800815095FD06C0C5
:102F600095ED9A95F1F700008111F5CF8091E80079
:102F700085FF0DC050E040E063E070E0CE010196B7
:102F80000E94BE198091E8008E778093E8000F9030
:102F90000F900F90DF91CF9108959C018091FA01DD
:102FA0008430F9F482E08093E9009FEF8091E8009B
:102FB000915085FD06C085ED8A95F1F700009111CD
:102FC000F5CF8091E80085FF0CC050E040E065E05F
:102FD00070E0C9010E94BE198091E8008E7780934D
:102FE000E8000895CF93DF93EC018091FA018430DB
:102FF000F1F4909112019923E9F09091F40197FF77
:1030000019C08093E9008FEF9091E800815095FD01
:1030100006C095E19A95F1F700008111F5CF8091F6
:10302000E80050E040E060E270E085FD1AC0DF910A
:10303000CF91089581E08093E9008FEF9091E800AF
:10304000815095FD06C095ED9A95F1F7000081112C
:10305000F5CF8091E80085FFEACF50E040E068E0DE
:1030600070E0CE010E94BE198091E8008E778093B7
:10307000E80080E2FE01AEECB1E001900D928A958D
:10308000E1F7D5CF8091F901811109C00E944E1B53
:103090000E94AB1B8091E20084608093E20008955F
:1030A0001092F9010895089508950C94371342E0A1
:1030B00061EC81E00E94CC1A42E061EC82E00E9467
:1030C000CC1A42E061EC83E00E94CC1A42E261EC4F
:1030D00084E00C94CC1A8091FC01833009F455C033
:1030E00030F4813071F1823009F491C008958A3052
:1030F00009F47DC08B3009F463C0893009F044C005
:103100008091FB01813209F03FC08091FF019091D5
:103110000002009711F00397B9F58091E800877FCE
:103120008093E8008091E80082FF2AC08091F1003E
:103130008093EE018091E8008B778093E8000C94F7
:10314000001B8091FB01813AF9F48091E800877FB0
:103150008093E8008091FF0190910002892B61F437
:1031600060E28EEC91E070E00E940D1A8091E80020
:103170008B778093E800089560E090E080E0F3CFE3
:103180008091FA018111CECF08958091FB01813A9F
:10319000D9F78091FF0190910002892BA9F78091C6
:1031A000E800877F8093E8008091E80080FFFCCFF3
:1031B000809112018093F1008091E8008E77BDCF5D
:1031C0008091FB01813201F78091FF019091000213
:1031D000892BD1F68091E800877F8093E8000E94D8
:1031E000001B8091FD01809312010C94B90B80911A
:1031F000FB01813249F68091E800877F8093E800E7
:103200000E94001B8091FE018093EF010895809140
:10321000FB01813A09F0B8CF8091E800877F809365
:10322000E8008091E80080FFFCCF8091EF01C2CFE1
:1032300084B7877F84BF0FB6F894A895809160000B
:10324000886180936000109260000FBE80E88093D8
:103250006100109261000E9441070E944E1B0E9473
:10326000AB1B8091E20084608093E20078940E941E
:103270002D1E0E94430788E091E00E94ED06809198
:10328000FA01853019F00E944907F9CF0E94F51222
:103290008091F801882399F30E942313882379F3FE
:1032A0000E94A819ECCF292F33272330310579F15B
:1032B00058F421303105F1F02230310519F190E058
:1032C00080E030E020E01AC02132310599F122324D
:1032D0003105A9F7643098F770E0FB01EE0FFF1F8E
:1032E000E25EFE4F20813181665E7E4FFB01808170
:1032F00090E004C082E190E029EC32E0FA013183F1
:10330000208308958DE690E02CE532E0F7CF9927F1
:103310008130910561F028F0029789F6ECE2F2E045
:1033200002C0E8E5F2E0849190E09F01E7CFE0E49D
:10333000F2E0F9CF643008F0C2CFE62FF0E0EE0FF4
:10334000FF1FEA5DFE4F2081318189E090E0D6CFFA
:1033500080E189BD82E189BD09B400FEFDCF809185
:10336000D8008F7D8093D8008091E00082608093A8
:10337000E0008091E00081FDFCCF0895AF92BF9204
:10338000CF92DF92FF920F931F93CF93DF936C0145
:10339000EB018A010E941F1BF82E811123C0011529
:1033A000110539F0F80180819181C81BD90BC80E35
:1033B000D91EB12CA12C2097A9F08091E80085FDA1
:1033C00022C08091E8008E778093E80001151105F6
:1033D000A1F0F80180819181A80EB91EB182A0826E
:1033E00085E0F82E8F2DDF91CF911F910F91FF90E7
:1033F000DF90CF90BF90AF9008950E941F1B88234D
:10340000D1F2F82EEFCFF60181916F018093F10098
:103410002197FFEFAF1ABF0ACECFFC0180910102C6
:103420009091020286179707A0F06115710529F4A3
:103430009091E8009E779093E80090E06115710507
:1034400051F4911108C08091E80082FF35C080E0FE
:103450000895BC01F2CF8091FA018823C9F185302B
:10346000C9F18091E80083FD31C08091E80082FDC0
:10347000EACF8091E80080FFE1CF2091F3008091B6
:10348000F200322F282F6115710519F0283031050F
:1034900058F091E02830310509F090E02091E800E3
:1034A0002E772093E800CACF81918093F10061507C
:1034B00071092F5F3F4FE7CF8091FA01882341F0D8
:1034C000853041F08091E80083FFBDCF81E0089511
:1034D00082E0089583E00895FC01809101029091BB
:1034E000020286179707A0F06115710529F48091F3
:1034F000E8008E778093E80090E06115710551F443
:10350000911108C08091E80082FF36C080E00895E4
:10351000BC01F2CF8091FA018823D1F18530D1F13D
:103520008091E80083FD32C08091E80082FDEACFFF
:103530008091E80080FFE1CF2091F3008091F200BC
:10354000322F282F6115710519F02830310558F0F8
:1035500091E02830310509F090E08091E8008E7705
:103560008093E800CACF84918093F1003196615036
:1035700071092F5F3F4FE6CF8091FA01882341F018
:10358000853041F08091E80083FFBCCF81E0089551
:1035900082E0089583E00895982F973028F08F7087
:1035A0008093E90081E008959093E900242F762F1D
:1035B00050E0981731F07091EC002091ED0050919F
:1035C000F00021FD02C09F5FE8CF3091EB003E7F0D
:1035D0003093EB003091ED003D7F3093ED00309162
:1035E000EB0031603093EB007093EC002093ED0022
:1035F0005093F0002091EE0027FDE5CF80E0089584
:103600008091FB0187FF13C08091E80082FF06C014
:103610008091E8008B778093E80004C08091FA01E4
:103620008111F2CF08958091FA018823D9F3809116
:10363000E80080FFF8CF8091E8008E77ECCF2091F2
:10364000E4003091E50085E69091EC0090FF06C023
:103650009091E80090FF06C080E008959091E80006
:1036600092FDFACF9091FA01992391F0953091F063
:103670009091EB0095FD10C04091E4005091E50061
:103680002417350709F381509A01F1F684E0089573
:1036900082E0089583E0089581E008950E94BC1BB4
:1036A0000E94C41BE0EEF0E0808181608083E8ED41
:1036B000F0E080818F77808319BCA7EDB0E08C911A
:1036C0008E7F8C9380818F7E80831092F901089584
:1036D0000F931F93CF93DF930E94BC1B0E94C41BC8
:1036E000C8EDD0E088818F7788838881806888835F
:1036F00088818F7D888319BC1092FA011092F6019F
:103700001092F8011092F70100EE10E0F8018081AC
:103710008B7F808388818160888342E060E080E0E5
:103720000E94CC1AE1EEF0E080818E7F8083E2EE91
:10373000F0E0808181608083808188608083F801EF
:1037400080818E7F8083888180618883DF91CF91A3
:103750001F910F910895E8EDF0E080818F7E8083C6
:10376000E7EDF0E080818160808384E082BF81E0CA
:103770008093F9010C94681BE8EDF0E080818E7F66
:1037800080831092E20008951092DA001092E10016
:1037900008951F920F920FB60F9211242F933F930B
:1037A0004F935F936F937F938F939F93AF93BF9349
:1037B000EF93FF938091E10082FF0BC08091E200C4
:1037C00082FF07C08091E1008B7F8093E1000E941F
:1037D0002C1E8091DA0080FF19C08091D80080FFF4
:1037E00015C08091DA008E7F8093DA008091D90035
:1037F00080FF94C080E189BD82E189BD09B400FEEB
:10380000FDCF81E08093FA010E9442188091E1008F
:1038100080FF19C08091E20080FF15C08091E20016
:103820008E7F8093E2008091E20080618093E200CD
:103830008091D80080628093D80019BC85E0809385
:10384000FA010E9454188091E10084FF29C0809100
:10385000E20084FF25C080E189BD82E189BD09B411
:1038600000FEFDCF8091D8008F7D8093D80080919D
:10387000E1008F7E8093E1008091E2008F7E809353
:10388000E2008091E20081608093E2008091F60185
:10389000882309F449C084E08093FA010E945518F6
:1038A0008091E10083FF29C08091E20083FF25C061
:1038B0008091E100877F8093E10082E08093FA01AC
:1038C0001092F6018091E1008E7F8093E10080915B
:1038D000E2008E7F8093E2008091E200806180931D
:1038E000E20042E060E080E00E94CC1A8091F000AB
:1038F00088608093F0000E945318FF91EF91BF9170
:10390000AF919F918F917F916F915F914F913F9177
:103910002F910F900FBE0F901F90189519BC109209
:10392000FA010E94501872CF8091E30087FD02C017
:1039300081E0B2CF83E0B0CF1F920F920FB60F920B
:1039400011242F933F934F935F936F937F938F93A4
:103950009F93AF93BF93CF93EF93FF93C091E900F1
:10396000CF708091EC001092E9008091F000877F89
:103970008093F00078940E94D81C1092E900809106
:10398000F00088608093F000C093E900FF91EF9110
:10399000CF91BF91AF919F918F917F916F915F91E7
:1039A0004F913F912F910F900FBE0F901F90189540
:1039B0001F93CF93DF93CDB7DEB7AA970FB6F894D6
:1039C000DEBF0FBECDBFEBEFF1E08091F100819340
:1039D00022E0E330F207C9F70E946B188091E800FB
:1039E00083FF42C08091FB019091FC019A3008F066
:1039F0003BC0E92FF0E0E150F34E0C948E1F091DFF
:103A00002D1D341D2D1D341D881DAA1D341DFF1DA7
:103A10000C1E803879F0823839F58091FF018F7063
:103A20008093E9008091EB0085FB882780F9109254
:103A3000E90006C08091F7019091F8019111826030
:103A40009091E800977F9093E8008093F1001092A6
:103A5000F1008091E8008E772DC0282F2D7F21F472
:103A60008823D1F0823059F18091E80083FF0AC0A9
:103A70008091E800877F8093E8008091EB0080626E
:103A80008093EB00AA960FB6F894DEBF0FBECDBFB1
:103A9000DF91CF911F9108958091FD01813021F731
:103AA000933009F080E08093F8011092E900809152
:103AB000E800877F8093E8000E94001BD5CF8091AB
:103AC000FD018111F2CF8091FF018F7069F2809327
:103AD000E9002091EB0020FFE8CF933031F4809192
:103AE000EB0080628093EB00E0CF9091EB0090615F
:103AF0009093EB0021E030E001C0220F8A95EAF7B5
:103B00002093EA001092EA008091EB008860EACFEF
:103B10008111AACF1091FD011F778091E300807879
:103B2000812B8093E3008091E800877F8093E800F9
:103B30000E94001B8091E80080FFFCCF8091E30091
:103B400080688093E30083E0111101C082E08093DC
:103B5000FA018ACF8058823008F086CF8091FD012B
:103B60009091FE018C3D23E09207A1F583E08A83CA
:103B70008AE289834FB7F894DE01139620E03EE095
:103B800051E2E32FF0E050935700E49120FF03C08F
:103B9000E295EF703F5FEF708E2F90E0EA30C0F05B
:103BA000C7968D939D932F5F243159F74FBF809116
:103BB000E800877F8093E8006AE270E0CE0101961A
:103BC0000E940D1A8091E8008B778093E8004CCF1B
:103BD000C096E7CFAE014F5F5F4F6091FF010E943B
:103BE0005319BC01892B09F43FCF9091E800977FCE
:103BF0009093E80089819A810E946C1AE3CF803803
:103C000009F032CF8091E800877F8093E8008091AF
:103C1000F6018093F1001DCF811126CF9091FD0117
:103C2000923008F021CF8091E800877F8093E800F0
:103C30009093F6010E94001B8091F601882331F0D9
:103C400084E08093FA010E9457180ECF8091E30020
:103C500087FDF6CF81E0F5CF0895CF938091FA01EB
:103C6000882399F0C091E900CF708091EC0080FD2D
:103C70000EC080E0C82B1092E9008091E80083FD1F
:103C80000E94D81CCF70C093E900CF91089580E8BE
:103C9000F1CF0E94501E6894B1110C94DF1E08955C
:103CA0000E94C41E88F09F5798F0B92F9927B751EA
:103CB000B0F0E1F0660F771F881F991F1AF0BA95D0
:103CC000C9F714C0B13091F00E94DE1EB1E0089532
:103CD0000C94DE1E672F782F8827B85F39F0B93F24
:103CE000CCF3869577956795B395D9F73EF4909583
:103CF0008095709561957F4F8F4F9F4F0895E89401
:103D000009C097FB3EF490958095709561957F4F23
:103D10008F4F9F4F9923A9F0F92F96E9BB279395D1
:103D2000F695879577956795B795F111F8CFFAF4E1
:103D3000BB0F11F460FF1BC06F5F7F4F8F4F9F4F12
:103D400016C0882311F096E911C0772321F09EE870
:103D5000872F762F05C0662371F096E8862F70E0D6
:103D600060E02AF09A95660F771F881FDAF7880FB0
:103D70009695879597F9089557FD9058440F551FCC
:103D800059F05F3F71F04795880F97FB991F61F0DD
:103D90009F3F79F087950895121613061406551F54
:103DA000F2CF4695F1DF08C0161617061806991FC0
:103DB000F1CF86957105610508940895E894BB27B5
:103DC00066277727CB0197F908950E94F81E0C9477
:103DD000691F0E945B1F38F00E94621F20F095232C
:103DE00011F00C94521F0C94581F11240C94DF1ED8
:103DF0000E94BC1E70F3959FC1F3950F50E0551FB4
:103E0000629FF001729FBB27F00DB11D639FAA272F
:103E1000F00DB11DAA1F649F6627B00DA11D661F7E
:103E2000829F2227B00DA11D621F739FB00DA11D9F
:103E3000621F839FA00D611D221F749F3327A00D59
:103E4000611D231F849F600D211D822F762F6A2FF5
:103E500011249F5750409AF0F1F088234AF0EE0F5A
:103E6000FF1FBB1F661F771F881F91505040A9F787
:103E70009E3F510580F00C94521F0C94DF1E5F3F53
:103E8000E4F3983ED4F3869577956795B795F795C3
:103E9000E7959F5FC1F7FE2B880F911D969587953B
:103EA00097F9089597F99F6780E870E060E00895BA
:103EB0009FEF80EC089500240A9416161706180642
:103EC0000906089500240A9412161306140605061E
:103ED0000895092E0394000C11F4882352F0BB0FAF
:103EE00040F4BF2B11F460FF04C06F5F7F4F8F4F12
:103EF0009F4F089597FB072E16F4009407D077FD87
:103F000009D00E94941F07FC05D03EF4909581953E
:103F10009F4F0895709561957F4F0895EE0FFF1F95
:103F20000590F491E02D0994AA1BBB1B51E107C039
:103F3000AA1FBB1FA617B70710F0A61BB70B881F39
:103F4000991F5A95A9F780959095BC01CD010895C8
:103F5000F999FECF92BD81BDF89A992780B5089551
:103F6000A8E1B0E042E050E00C94D01F262FF99970
:103F7000FECF92BD81BDF89A019700B4021639F0C8
:103F80001FBA20BD0FB6F894FA9AF99A0FBE089599
:103F90000196272F0E94B71F0C94B61FDC01CB019E
:103FA000FC01F999FECF06C0F2BDE1BDF89A319649
:103FB00000B40D9241505040B8F70895F894FFCFE7
:103FC000A0012808140A321E6017F217CD179717A0
:103FD00063170131333236F5F6F4404D3639970325
:0E3FE0004A031403DB026E028702A002B9023C
:00000001FF
